:020000040800F2
:10000000F80B00209D120008C9020008CB0200086E
:10001000CF020008D3020008D70200080000000049
:10002000000000000000000000000000DB020008EB
:10003000DD02000800000000DF020008E102000805
:10004000B7120008B7120008B7120008B71200086C
:10005000B7120008B7120008B7120008B71200085C
:10006000B7120008B7120008B7120008B71200084C
:10007000B7120008B7120008B7120008B71200083C
:10008000B7120008B7120008B7120008B71200082C
:10009000B7120008B7120008B7120008B71200081C
:1000A000B7120008B7120008B7120008B71200080C
:1000B000B7120008B7120008B7120008B7120008FC
:1000C000B7120008B7120008B7120008B7120008EC
:1000D000B712000813120008B7120008B712000880
:1000E000B7120008B7120008B7120008B7120008CC
:1000F000B7120008B7120008B7120008B7120008BC
:10010000B7120008B7120008B7120008B7120008AB
:10011000B7120008B7120008B7120008B71200089B
:10012000B7120008B7120008B7120008B71200088B
:1001300000F002F800F03AF80AA090E8000C8244BF
:100140008344AAF10107DA4501D100F02FF8AFF29C
:10015000090EBAE80F0013F0010F18BFFB1A43F0A5
:10016000010318474C0601006C060100103A24BF39
:1001700078C878C1FAD8520724BF30C830C144BF0C
:1001800004680C607047000000230024002500264E
:10019000103A28BF78C1FBD8520728BF30C148BFEA
:1001A0000B6070471FB51FBD10B510BD02F013F8EE
:1001B0001146FFF7F7FF00F009F802F031F803B439
:1001C000FFF7F2FF03BC00F0C9FF00001CB500F010
:1001D0005BFF4FF4A06001F005FE00F073F900F042
:1001E00074FE4FF61F0000F0C3FA0021084600F02D
:1001F00060FE4FF47840204908804FF6FF701F4999
:1002000008801FA020210B46F022CDE900106421B8
:10021000002000F0F5FD1EA018210B46F022CDE9CC
:1002200000108C21002000F0EBFD4FF6FF7012490A
:1002300008801F20114908801AA010210B46F022C7
:10024000CDE90010AA21002000F0DAFD19A00C2150
:100250000B46F022CDE90010C821002000F0D0FDAF
:1002600009E017480068C0431649C1F8A0014FF4DF
:100270007A7000F046FFF4E714000020160000201A
:100280004D494E492053544D333246310000000051
:100290005446544C43442054455354203234302A5D
:1002A0003234300041544F4D40414C49454E544545
:1002B0004B000000323031392F312F370000000061
:1002C000A001214200002142704700BFFEE700BFAD
:1002D000FEE700BFFEE700BFFEE7704770477047CC
:1002E000704700000CB50020019000906C48006839
:1002F00040F480306A49086000BF6948006800F433
:10030000003000900198401C0190009818B90198A5
:10031000B0F5A06FF1D16248006800F4003010B170
:100320000120009001E0002000900098012843D1B6
:100330005C48006840F010005A49086008460068B0
:1003400020F0030008600846006840F002000860E2
:10035000534840685249486008464068486008462B
:10036000406840F4806048600846406820F47C1093
:1003700048600846406840F4E81048600846006855
:1003800040F08070086000BF4548006800F00070D1
:100390000028F9D04248406820F0030040494860F6
:1003A0000846406840F00200486000BF3C48406892
:1003B00000F00C000828F9D10CBD10B5FFF792FF32
:1003C00010BD10B53648006840F00100344908609F
:1003D000084640683449084031494860084600688A
:1003E000324908402E4908600846006820F4802001
:1003F00008600846406820F4FE0048604FF41F0083
:100400008860FFF7DAFF4FF000602949086010BDEF
:1004100010B5002100200022214B5B6803F00C0185
:1004200021B1042906D0082928D107E0214B224C0C
:10043000236027E01F4B204C236023E0184B5B68B0
:1004400003F47010164B5B6803F48032022303EB55
:10045000904022B9194B4343174C23600DE0104BD9
:100460005B6803F4003323B1144B4343124C236005
:1004700003E0104B4343104C236003E00D4B0E4C44
:10048000236000BF00BF064B5B68C3F303130C4C33
:10049000E15C094B1B68CB40074C236010BD00009A
:1004A00000100240002002400000FFF8FFFFF6FEAF
:1004B00008ED00E000127A000000002000093D0075
:1004C0000400002008B50121242001F023FA4FF494
:1004D0008070ADF8000010208DF8030003208DF827
:1004E00002006946094800F059FF4FF4807107483F
:1004F00001F001F80420ADF800006946044800F05E
:100500004DFF0421024800F0F6FF08BD000801403D
:100510000014014070B50546002405E0601CC4B21B
:10052000C82C01DD002070BD0221414801F017FEFA
:100530000028F3D029463E4801F0BEFD002405E026
:10054000601CC4B2C82C01DD0020ECE70121384852
:1005500001F005FE0028F3D0354801F0AFFDC0B230
:10056000E1E708B5012141F2040001F0D3F9A02030
:10057000ADF8000018208DF8030003208DF802006C
:1005800069462C4800F00AFFA0212A4800F0B3FF7A
:100590000020294908804FF482704880002088801C
:1005A0000220C88001200881400248810020888103
:1005B000C881072008821E4801F0A8FC01211C48C0
:1005C00001F049FDFF20FFF7A5FF08BD1849098884
:1005D0004FF6C7721140164A11801146098801432F
:1005E00011801146098841F04001118070472DE9C2
:1005F000F04105460E460027002414E006E0781C72
:10060000C7B2C82F02DD0020BDE8F08102210848F2
:1006100001F0A5FD0028F2D0295D054801F04CFD50
:100620000027601C84B2B442E8DB0120ECE7000044
:1006300000300140000801403800002008B50121C9
:10064000142001F067F95220ADF8000010208DF859
:10065000030003208DF802006946FE4800F09EFE6C
:100660005221FC4800F047FF1020ADF800008DF843
:10067000030003208DF802006946F74800F08EFE63
:100680001021F54800F037FF0020F4490860F449D4
:10069000C1F89001F3490860782000F032FD012094
:1006A000EF49C1F88401FFF75CFF08BD70B504464F
:1006B0000D4629462046FFF79AFF70BD01B5002080
:1006C000E8491431086001216846FFF7EFFF08BDD3
:1006D00001B50120E3491431086001216846FFF7A4
:1006E000E5FF08BD38B504460020009020128DF8C3
:1006F0000000E0B28DF801000120DA4914310860F1
:1007000002216846FFF7D2FF38BD2DE9F0410446CB
:100710000D4616461F462A20FFF7D0FF2012FFF78E
:10072000D7FFE0B2FFF7D4FF3012FFF7D1FFF0B2EE
:10073000FFF7CEFF2B20FFF7C1FF2812FFF7C8FFFE
:10074000E8B2FFF7C5FF3812FFF7C2FFF8B2FFF7B4
:10075000BFFF2C20FFF7B2FFBDE8F0810120C149A7
:100760000C31086070470020BE490C3108607047AA
:10077000F8B505460020009028128DF80000E8B278
:100780008DF80100EF231A4600210846FFF7BDFF50
:1007900000240DE09DF80000B34901F814009DF815
:1007A0000100012101EB4401AF4A5054601C84B2A6
:1007B000B4F5107FEEDB0120AA4914310860002651
:1007C00006E04FF49061A848FFF770FF701C86B2F6
:1007D000642EF6DBF8BD2DE9F05F074688469146AA
:1007E0009A46DDF828B0002400250026A9EB070072
:1007F000401CAAEB0801491C48434500B5F5906F21
:1008000003D9A5F590664FF4906553464A46414694
:100810003846FFF77AFF21E000240AE04FEA2B2058
:10082000914A02F814006000401C02F800B0601CFD
:1008300084B2B4EB550FF1D301208A49143108601A
:10084000A9B28948FFF732FF06B908E0B6F5906F04
:1008500002D9A6F5906601E035460026DCE700BF28
:10086000BDE8F09F70B504460D462B46224629464A
:100870002046FFF74AFF7D480088FFF733FF70BD31
:1008800070B504460D4616462B462246294620469C
:10089000FFF73BFF3046FFF725FF70BD2DE9FF4F07
:1008A00087B0074688469146002005900490019045
:1008B0000A9880452DD14A46414638460A9BFFF7A3
:1008C00024FF002001900FE0684800880112664A6A
:1008D000019802F810106548017801984000401C0A
:1008E00011540198401C0190A9EB07010198814225
:1008F000EAD801205B4914310860A9EB07004FF6E4
:10090000FF7202EA40015848FFF7D0FE0BB0BDE885
:10091000F08FA9EB07040A98A0EB08050397CDF820
:100920000880002C02DD4FF0010A06E014B94FF0F8
:10093000000A02E04FF0FF3A6442002D02DD4FF062
:10094000010B06E015B94FF0000B02E04FF0FF3B42
:100950006D42AC4201DD264600E02E4600200690A6
:1009600021E0029A91B2039A90B2FFF77BFF0598BB
:10097000204405900498284404900598B04205DD71
:100980000598801B05900398504403900498B0424A
:1009900005DD0498801B0490029858440290069844
:1009A000401C80B20690711C06988842D9DD00BFB9
:1009B000ACE72DE9F04104460D4616461F462B468E
:1009C000324629462046FFF769FF3B462246294624
:1009D0002046FFF763FF3B46324639462046FFF785
:1009E0005DFF3B46324629463046FFF757FFBDE8DC
:1009F000F0812DE9F04706460F4690460024454613
:100A00000320A0EB480957E03A1B91B2721B90B249
:100A1000FFF728FF3A1B91B2721990B2FFF722FF3D
:100A20007A1991B2321B90B2FFF71CFF3A1B91B2B8
:100A3000721B90B2FFF716FF7A1B91B2321B90B275
:100A4000FFF710FF3A1991B2721990B2FFF70AFF3F
:100A50007A1B0DE000080140001001409001224285
:100A600000002142840121424A000020140000209D
:100A700091B2321990B2FFF7F5FE7A1991B232199C
:100A800090B2FFF7EFFE3A1991B2721B90B2FFF7E6
:100A9000E9FE641CB9F1000F03DAA000801D814457
:100AA00004E0601B80000A3081446D1E7A1991B207
:100AB000321990B2FFF7D6FEAC42A5DDBDE8F08753
:100AC0002DE9FE4F82468B4616461C46A6F12000B5
:100AD000C6B204EBD4714910C1F1F001514503DBFA
:100AE000C4F1F001594501DABDE8FE8F04EBD47082
:100AF0000AEB6000401E82B20BEB0400401E83B282
:100B0000594650460094FFF700FE102C01D0202CCF
:100B10004ED12046E31704EB5373DB1021464FEA16
:100B2000E47C04EB5C7C4FEAEC0CA4EBCC0CBCF159
:100B3000000F02D04FF0010C01E04FF0000C6344B5
:100B4000224604EBD27C4FEA6C0C03FB0CF303F05F
:100B5000FF09002529E0102C04D1FE4800EB061007
:100B6000475D07E0202C04D1FB4800EBC610475D31
:100B700000E0B9E74FF0000812E007F0800018B17C
:100B8000F6480088029002E0F5480088029002983A
:100B9000FFF7A8FD7806070E08F1010000F0FF0836
:100BA000B8F1080FE9DB681CC5B24D45D3DB80E026
:100BB0000C2C45D12046E31704EB5373DB10214680
:100BC0004FEAE47C04EB5C7C4FEAEC0CA4EBCC0C2D
:100BD000BCF1000F02D04FF0010C01E04FF0000C0F
:100BE0006344224604EBD27C4FEA6C0C03FB0CF30B
:100BF00003F0FF09002520E006EB4600D94901EB90
:100C00008000475D4FF0000812E007F0800018B147
:100C1000D2480088029002E0D148008802900298F1
:100C2000FFF760FD7806070E08F1010000F0FF08ED
:100C3000B8F1060FE9DB681CC5B24D45DCDB38E0D6
:100C4000182C36D12001C11700EB5171C1F3C7092F
:100C500000252CE006EB4600C34901EB0010475D80
:100C6000284605EBD0714910A5EB410111B90820C8
:100C7000019001E0042001904FF0000812E007F01D
:100C8000800018B1B5480088029002E0B44800889E
:100C900002900298FFF726FD7806070E08F1010082
:100CA00000F0FF0801988045E9DB681CC5B24D459E
:100CB000D0DB00BF18E710B50246012000E050432A
:100CC0000B1EA1F10104E1B2F9D110BD2DE9FF5FC6
:100CD000074691461E460E9D4FF0000A002435E05F
:100CE000301B401EC1B20A20FFF7E5FFB9FBF0F050
:100CF0000A21B0FBF1F201FB1208BAF1000F14D186
:100D0000701EA04211DDB8F1000F0CD1AB4605EB0F
:100D1000DB71491001FB047188B22B462022019936
:100D2000FFF7CEFE10E04FF0010AAB4605EBDB719A
:100D3000491001FB047188B208F13001CAB22B4698
:100D40000199FFF7BDFE00BF601CC4B2B442C7DB0F
:100D5000BDE8FF9F2DE9FF4F81B0064691461F4633
:100D6000DDE90E4A00200090002544E0781B401E7B
:100D7000C1B20A20FFF79FFFB9FBF0F00A21B0FBD8
:100D8000F1F201FB1208009820BB781EA84221DD79
:100D9000B8F1000F1CD1BAF1000F0CD0A34604EB40
:100DA000DB71491001FB056188B2234630220299AC
:100DB000FFF786FE0BE0A34604EBDB71491001FB55
:100DC000056188B2234620220299FFF779FE10E0E0
:100DD00001200090A34604EBDB71491001FB056183
:100DE00088B208F13001CAB223460299FFF768FEC3
:100DF00000BF681CC5B2BD42B8DB05B0BDE8F08FCE
:100E00002DE9F04704460D4690469946DDE908670E
:100E100004F0FF0A08EB04001FFA80F809EB050054
:100E20001FFA80F914E0444502DB5446A81985B244
:100E30004D4500DB12E03A78334629462046FFF75D
:100E40003FFE304606EBD07104EB61018CB27F1C93
:100E500038787E2802DC38782028E4DA00BFBDE844
:100E6000F0872DE9F04106460F4614461D46DDF891
:100E700018803019F02802DC7819F02801DDBDE86F
:100E8000F0817819401E83B23019401E82B2394673
:100E90003046FFF73AFC01203449086004FB05F0B6
:100EA0004FF6FF7202EA40014046FFF7FFFB00BF2A
:100EB000E5E738B504460D462D485223F022294671
:100EC00000902046FFF7CDFF38BD10B5FFF7B6FB09
:100ED000782000F016F91120FFF7F0FB782000F0E1
:100EE00010F93620FFF7EAFB0020FFF7F1FB3A206C
:100EF000FFF7E4FB6520FFF7EBFBB220FFF7DEFB1B
:100F00000C20FFF7E5FB0C20FFF7E2FB0020FFF7CA
:100F1000DFFB3320FFF7DCFB3320FFF7D9FBB720E3
:100F2000FFF7CCFB7220FFF7D3FBBB20FFF7C6FB1C
:100F30003D20FFF7CDFBC020FFF7C0FB2C20FFF7C3
:100F4000C7FBC220FFF7BAFB0120FFF7C1FBC3209C
:100F500010E00000B0260008703E000814000020D9
:100F6000160000203C220008A02C00089801214215
:100F7000F06D0008FFF7A2FB1920FFF7A9FBC420C2
:100F8000FFF79CFB2020FFF7A3FBC620FFF796FB93
:100F90000F20FFF79DFBD020FFF790FBA420FFF769
:100FA00097FBA120FFF794FBE020FFF787FBD02001
:100FB000FFF78EFB0420FFF78BFB0D20FFF788FB6C
:100FC0001120FFF785FB1320FFF782FB2B20FFF793
:100FD0007FFB3F20FFF77CFB5420FFF779FB4C2081
:100FE000FFF776FB1820FFF773FB0D20FFF770FB70
:100FF0000B20FFF76DFB1F20FFF76AFB2320FFF795
:1010000067FBE120FFF75AFBD020FFF761FB0420CC
:10101000FFF75EFB0C20FFF75BFB1120FFF758FB8F
:101020001320FFF755FB2C20FFF752FB3F20FFF763
:101030004FFB4420FFF74CFB5120FFF749FB2F20CB
:10104000FFF746FB1F20FFF743FB1F20FFF740FB86
:101050002020FFF73DFB2320FFF73AFB2120FFF77D
:101060002DFB2920FFF72AFBEF231A460021084613
:10107000FFF74BFB4FF6FF70FFF77AFB01200149AA
:10108000086010BD9001214210B56FF0040000F01F
:10109000F8FE2E4800682E49B0FBF1F02D4908708B
:1010A0000846007800EB4001C1EBC0104FF6FF711D
:1010B00001EAC0002849088010BD0146254A12787F
:1010C0004A434FF0E0235A6100229A611A4612699E
:1010D00042F001021A6100BF4FF0E022106900F0F7
:1010E00001021AB100F48032002AF5D04FF0E0225C
:1010F000126922F001024FF0E0231A6100229A6186
:1011000070470146144A12884A434FF0E0235A615F
:1011100000229A611A46126942F001021A6100BF68
:101120004FF0E022106900F001021AB100F48032A1
:10113000002AF5D04FF0E022126922F001024FF0B0
:10114000E0231A6100229A6170470000000000202D
:1011500000127A00180000201A000020014600BF8B
:10116000704700BF494A128802F04002002AF9D0B5
:10117000C2B2464B1B1D1A80704710B586B004469C
:10118000012144F2040000F0C5FB4FF40070ADF8FB
:10119000140003208DF8160018208DF8170005A9FB
:1011A0003B4800F0FBF84FF48060ADF814000420D9
:1011B0008DF8170005A9364800F0F0F825208DF8C5
:1011C000000003208DF801008DF8020001208DF849
:1011D0000300684600F00BFE01940020ADF8080003
:1011E000ADF80A00ADF80C00ADF810000C20ADF819
:1011F0000E0001A9254800F034FC012240F22551DF
:10120000224800F0C6FC0121204800F0B6FC06B0E0
:1012100010BD10B540F225511C4800F09FFD10B3E1
:101220001A4800F01BFDC4B21A48008800F40040C0
:10123000C8B91848008800F4804060B10A2C03D077
:1012400000201449088020E01248008840F4004043
:101250001049088019E00D2C06D10E48008840F492
:1012600080400C49088010E00A480088C0F30D0057
:1012700009490C5407480088401C06490880084664
:101280000088C72801DD0020088010BD003801401B
:101290000008014020000020CA04002009488047BF
:1012A00009480047FEE7FEE7FEE7FEE7FEE7FEE748
:1012B000FEE7FEE7FEE7FEE704480549054A064B60
:1012C00070470000C303000831010008F805002042
:1012D000F80B0020F8070020F807002010B504469E
:1012E000CC48844208D10121042000F02DFB0021CC
:1012F000042000F029FB46E0C748844208D10121C0
:10130000082000F021FB0021082000F01DFB3AE03E
:10131000C248844208D10121102000F015FB0021B1
:10132000102000F011FB2EE0BD48844208D10121BD
:10133000202000F009FB0021202000F005FB22E026
:10134000B848844208D10121402000F0FDFA002174
:10135000402000F0F9FA16E0B348844208D1012198
:10136000802000F0F1FA0021802000F0EDFA0AE080
:10137000AE48844207D10121801500F0E5FA002132
:10138000A01500F0E1FA10BD10B50121084600F0EB
:10139000DBFA0021012000F0D7FA10BD2DE9F04161
:1013A000024600250026002000230024002791F893
:1013B00003C00CF00F0591F803C00CF0100CBCF149
:1013C000000F03D091F802C04CEA050591F800C067
:1013D000BCF1000F31D0146800202BE04FF0010C5D
:1013E0000CFA00F3B1F800C00CEA03069E4220D1CB
:1013F00083004FF00F0C0CFA03F7BC4305FA03FC13
:101400004CEA040491F803C0BCF1280F06D14FF058
:10141000010C0CFA00FCC2F814C00AE091F803C0F9
:10142000BCF1480F05D14FF0010C0CFA00FCC2F8DA
:1014300010C0401C0828D1D31460B1F800C0BCF122
:10144000FF0F34DD546800202EE000F1080C4FF04F
:10145000010808FA0CF3B1F800C00CEA03069E423A
:1014600021D183004FF00F0C0CFA03F7BC4305FAAF
:1014700003FC4CEA040491F803C0BCF1280F05D129
:1014800000F1080C08FA0CF8C2F8148091F803C0B7
:10149000BCF1480F07D100F1080C4FF0010808FA21
:1014A0000CF8C2F81080401C0828CED35460BDE868
:1014B000F0814FF6FF710180022181700421C1701B
:1014C00070470246002093680B400BB1012000E0FA
:1014D000002070470146886880B2704702460020AD
:1014E000D3680B400BB1012000E00020704701469B
:1014F000C86880B2704701617047416170470AB1A6
:10150000016100E041617047C16070474FF4803273
:101510000A43826181618261826982697047024601
:101520000020434B18684FF68073184040EA0210C1
:1015300008433F4B186070473E49C8617047F0B59B
:101540000A46002300240021002500F00046B6F1E1
:10155000004F02D1364EF16901E0354E7168C0F39B
:10156000034583B200F44016B6F5401F08D121F0C0
:1015700070612F4E766826F070662D4F7E6012E007
:1015800000F48016B6F5801F06D1032606FA05F48E
:10159000A14341F0706106E0460D360103FA06F6FC
:1015A000B14341F0706122B1460D360103FA06F6EF
:1015B000314300F00046B6F1004F02D11C4EF161FC
:1015C00001E01B4E7160F0BD30B500228B071C0F8F
:1015D0000F2303FA04F2164B08338C1053F824300F
:1015E0009343134C08348D1044F8253023468C1057
:1015F00053F824308C07240F00FA04F423430C4CD6
:1016000008348D1044F8253030BD0A49DC310860BB
:101610007047000000080140000C0140001001402C
:101620000014014000180140001C0140002001404E
:101630000000014000002042DF48006840F0010047
:10164000DD49086008464068DC490840DA494860DE
:1016500008460068DA490840D7490860084600682B
:1016600020F4802008600846406820F4FE004860AE
:101670004FF41F0088607047CF49096821F480311A
:10168000CD4A11601146096821F480211160B0F53E
:10169000803F03D0B0F5802F0ED106E0C64909681F
:1016A00041F48031C44A116007E0C349096841F43C
:1016B000A021C14A116000E000BF00BF704710B513
:1016C00001460022002300204A11012A02D1BA4C0F
:1016D000236806E0022A02D1B74C236A01E0B64C27
:1016E000636A01F01F02012494401C400CB10120E8
:1016F00000E0002010BD38B5002000900024002537
:1017000000BF3120FFF7DBFF05460098401C00902A
:101710000098B0F5A06F01D0002DF2D03120FFF776
:10172000CEFF08B1012400E00024204638BD014668
:101730000020A14A106820F0F80040EAC1001060C3
:101740007047A04908607047024600209A4B5868CD
:1017500020F47C1042EA01031843974B586070470D
:1017600098490866704701460020934A506820F067
:1017700003000843506070478F48406800F00C0039
:101780007047014600208C4A506820F0F000084362
:101790005060704701460020874A506820F4E0609E
:1017A00008435060704701460020834A506820F487
:1017B000605040EAC1005060704729B17E4A527AB9
:1017C00002437D4B5A7204E07B4A527A82437A4B41
:1017D0005A7270477B49D831086070470146002033
:1017E000754A506820F4404008435060704700211B
:1017F000714A20321170704A82F82010012802D0FC
:1018000004280AD104E001216B4A2032117005E05E
:101810000521694A2032117000E000BF00BF704707
:101820006949086070476449096A0143624A116264
:101830007047654944390860704730B5002100227F
:10184000002400235C4D6D6805F00C0121B10429D2
:1018500005D0082923D105E05C4D056022E05B4DF1
:1018600005601FE0544D6D6805F47012524D6D68AF
:1018700005F48034022505EB92421CB9544D5543C2
:1018800005600BE04C4D6D6805F400351DB1504D01
:101890005543056002E04D4D5543056002E04B4D58
:1018A000056000BF00BF444D6D6805F0F0010909F7
:1018B000484D6B5C0568DD4045603F4D6D6805F443
:1018C000E061090A434D6B5C4568DD4085603A4D37
:1018D0006D6805F46051C90A3E4D6B5C4568DD409A
:1018E000C560354D6D6805F44041890B3A4D6B5C20
:1018F000C568B5FBF3F5056130BD29B12E4A5269C3
:1019000002432D4B5A6104E02B4A526982432A4B11
:101910005A61704729B1284A92690243264B9A615D
:1019200004E0254A92698243234B9A61704729B1AA
:10193000214AD2690243204BDA6104E01E4AD2698F
:1019400082431D4BDA61704729B11B4AD2680243BA
:10195000194BDA6004E0184AD2688243164BDA6009
:10196000704729B1144A12690243134B1A6104E00B
:10197000114A12698243104B1A617047124940396B
:10198000086070470F49C86470470B49C8717047B9
:101990000948406A40F08070074948627047014634
:1019A0000020054A92680A400AB1012000E00020A8
:1019B0007047014988727047001002400000FFF82C
:1019C000FFFFF6FE000042428004424200127A000D
:1019D00000093D00220000203200002010B504461E
:1019E000FB48844209D101218803FFF7ADFF0021A4
:1019F0004FF48040FFF7A8FF32E0F648844209D157
:101A000001214804FFF7ADFF00214FF40030FFF73C
:101A1000A8FF25E0F048844209D101218804FFF79E
:101A2000A0FF00214FF48020FFF79BFF18E0EB4858
:101A3000844209D10121C804FFF793FF00214FF42C
:101A40000020FFF78EFF0BE0E548844208D101211A
:101A50000805FFF786FF00214FF48010FFF781FF94
:101A600010BD2DE9F04786B005460E460024A2467B
:101A700000BFA1460027B08900B100BF2F462C8AC5
:101A80004CF6FF700440F08804432C82AC894EF67B
:101A9000F3100440B0883189084371890843044336
:101AA000AC81AC8A4FF6FF400440B0890443AC825D
:101AB00001A8FFF7C2FEC648874202D1DDF810A098
:101AC00001E0DDF80CA0A88900F4004040B10AEB69
:101AD000CA0000EB0A1031684900B0FBF1F807E0DA
:101AE0000AEBCA0000EB0A1031688900B0FBF1F87C
:101AF0006420B8FBF0F004012009642101FB108987
:101B0000A88900F4004040B1322000EBC900B0FBCE
:101B1000F1F000F00700044308E0322000EB091068
:101B20006421B0FBF1F000F00F0004432C8106B0FB
:101B3000BDE8F0874FF41651016000218180C1801B
:101B400001810C21418100218181704710B502463D
:101B50000020108A4FF2FF0318400B884C88234363
:101B60008C882343CC8823431843108210BD002166
:101B7000018041808180C180704721B1828942F417
:101B80000052828104E082894DF6FF731A408281FF
:101B90007047F0B50346002400260025002040F6DB
:101BA0006A17B94200D100BF1846C1F3421401F0D0
:101BB0001F06012707FA06F5012C01D10C3004E0BD
:101BC000022C01D1103000E014301AB107682F4305
:101BD000076002E00768AF430760F0BD1AB1838A6F
:101BE0000B43838202E0838A8B4383827047028A9D
:101BF0004FF6F0731A400282028A0A43028270474B
:101C000082894FF2FF731A40828182890A4382815E
:101C1000704721B1828942F00202828104E0828908
:101C20004FF6FD731A4082817047028A4FF6DF73C8
:101C30001A400282028A0A430282704721B1028A54
:101C400042F48042028204E0028A4BF6FF731A409B
:101C500002827047C1F3080282807047014688887B
:101C6000C0F308007047818941F00101818170470C
:101C7000028BD2B20283028B42EA012202837047B6
:101C8000028B02F47F420283028B0A430283704775
:101C900021B1828A42F02002828204E0828A4FF6D9
:101CA000DF731A408282704721B1828A42F01002AB
:101CB000828204E0828A4FF6EF731A408282704774
:101CC00021B1828A42F00802828204E0828A4FF6C1
:101CD000F7731A408282704721B1828942F4004230
:101CE000828103E08289C2F30E028281704721B1B2
:101CF000828A42F40062828204E0828A4FF2FF7399
:101D00001A4082827047828A4FF6FB731A408282A1
:101D1000828A0A438282704721B1828A42F002029B
:101D2000828204E0828A4FF6FD731A4082827047F5
:101D300002460020B1F5007F00D100BF13880B40A0
:101D40000BB1012000E00020704701F40072B2F5F1
:101D5000007F00D100BFCA430280704770B50246C1
:101D6000002400230025002040F66A16B14200D16D
:101D700000BFC1F3421501F01F03012606FA03F369
:101D8000012D02D19689334006E0022D02D1168A38
:101D9000334001E0968A33400C12012606FA04F41F
:101DA0001688344013B10CB1012000E0002070BD52
:101DB00010B50022002340F66A14A14200D100BFF2
:101DC0000A1201249440A3B2DC43048010BD000039
:101DD000003801400044004000480040004C0040F2
:101DE0000050004031490143314A1160704770B5DD
:101DF000002100230F22C47804B32D4C246804F47E
:101E0000E064C4F5E064210AC1F10403CA404478E7
:101E100004FA03F18478144021430901254C067823
:101E2000A155047804F01F050124AC4005786D111C
:101E3000AD0005F1E025C5F8004109E0047804F0A3
:101E40001F050124AC401C4D0678761145F826404C
:101E500070BD1A4A0A400243154B1B1F1A60704797
:101E600039B1134A121D12680243114B1B1D1A602F
:101E700006E00F4A121D126882430D4B1B1D1A60AB
:101E80007047042808D14FF0E021096941F00401AE
:101E90004FF0E022116107E04FF0E021096921F0E5
:101EA00004014FF0E0221161704700000000FA05C4
:101EB0000CED00E000E400E080E100E080FFFF1FA7
:101EC00010B50446BE48844208D101218014FFF7B2
:101ED0003BFD0021A014FFF737FD16E0B94884420E
:101EE00008D101210014FFF73CFD00212014FFF769
:101EF00038FD0AE0B448844207D10121C013FFF73E
:101F000030FD0021E013FFF72CFD10BD10B50022BD
:101F1000028802F441520B884C8823438C88234367
:101F2000CC8823430C8923434C8923438C89234346
:101F3000CC8923431A430280838B4FF2FF742340E2
:101F400083830B8A038210BD2DE9F04F85B00546CF
:101F50000C464FF0000902274FF000084FF0010B2C
:101F60000026B246A88B4FF240010840A883022009
:101F70002884B5F81C90A068022801D100BF38E081
:101F8000A08810B94FF0010B01E04FF0020B8D4813
:101F9000854200D100E000BF6846FFF74EFCDDF847
:101FA00000A0E088B0F5007F0AD14FEA1A2000EBCC
:101FB00080004000A168B0FBF1F0401D86B20BE04C
:101FC0004FEA4B10BAFBF0F000EB80004000A16834
:101FD000B0FBF1F0401D86B20A20B6FBF0F606F029
:101FE0000108A6EB0800C0F34F074FF6FF7000EAA8
:101FF0000828022F01DBFF2F02DD02274FF0000827
:10200000E08840EA080038432884A088A189084372
:10201000618808432188084340F4006040EA0909C8
:10202000A5F81C9005B0BDE8F08F0021018041802B
:102030008180C180018141818181C181072101822B
:1020400070470021018041808180C1800221816030
:1020500000218181704721B1028842F04002028054
:1020600004E002884FF6BF731A400280704721B126
:10207000828B42F48062828304E0828B4FF6FF33CE
:102080001A408283704730B5002400230C110125CB
:10209000A540ABB21AB185881D43858002E08588D2
:1020A0009D43858030BD1AB183880B43838002E055
:1020B00083888B438380704781817047014688897C
:1020C00070474FF6FF62914204D0028842F480725A
:1020D000028004E002884FF6FF631A4002807047D6
:1020E00021B1828842F00402828004E082884FF6A7
:1020F000FB731A408280704702884FF2FF731A40C8
:10210000028002880A4302807047018841F48051AE
:102110000180704721B1028842F40052028004E03D
:1021200002884DF6FF731A40028070470246002075
:10213000012901D0108B00E0908A70470146088A7F
:102140007047B1F5804F04D1028842F4804202808A
:1021500004E002884BF6FF731A4002807047024683
:10216000002013890B400BB1012000E000207047D4
:10217000CA4302817047F0B50246002000240023C4
:10218000002501F00F070126BE40B4B20B11012655
:102190009E40B3B2968806EA03051689264016B11A
:1021A0000DB1012000E00020F0BD10B5002201F0CB
:1021B0000F040123A3409AB2D343038110BD000052
:1021C0000030014000380040003C0040704770473C
:1021D000704770477047754600F02CF8AE46050012
:1021E0006946534620F00700854618B020B5FFF732
:1021F00063F8BDE820404FF000064FF000074FF0B5
:1022000000084FF0000B21F00701AC46ACE8C00914
:10221000ACE8C009ACE8C009ACE8C0098D4670471D
:1022200010B50446AFF300802046BDE81040FDF72E
:10223000C6BF000000487047940500200000000061
:1022400000000000000000000000202020202000EE
:1022500000200000282850000000000000000000BE
:1022600000005050F85050F850500000002070A866
:10227000A0603028A8702000000048A8B0A87434DE
:102280005448000000002050506CA8A8946800003A
:1022900040408000000000000000000008101020F6
:1022A00020202020101008004020201010101010B6
:1022B0002020400000000020A87070A8200000002E
:1022C00000000010107C1010000000000000000052
:1022D00000000000404080000000000000FC000002
:1022E00000000000000000000000000000400000AE
:1022F0000004080810102020404080000000708872
:1023000088888888887000000000206020202020B5
:1023100020700000000070888810204080F80000C5
:102320000000708808300808887000000000103035
:10233000305090F8103800000000F88080F08808D5
:10234000887000000000304880B0C88888700000A5
:102350000000780810102020202000000000708865
:1023600088708888887000000000708888986808E5
:10237000906000000000000020000000002000002D
:1023800000000000002000000020200000000810D5
:10239000204040201008000000000000FC00FC006D
:1023A000000000000000402010080810204000003D
:1023B00000007088881020200020000000003844B1
:1023C00094B4B4B844380000000020203050507855
:1023D00048CC00000000F0484870484848F0000031
:1023E0000000788880808080887000000000F048BD
:1023F0004848484848F000000000F84850705040F5
:1024000048F800000000F8485070504040E00000DC
:102410000000384880809C88483000000000CC488C
:102420004878484848CC00000000F82020202020B0
:1024300020F8000000007C1010101010101090E028
:102440000000EC485060504848EC00000000E040BC
:102450004040404044FC00000000DCD8D8D8A8A888
:10246000A8AC00000000DC486868585848E8000044
:102470000000708888888888887000000000F04814
:102480004870404040E0000000007088888888E87C
:10249000987018000000F0484870504848EC000060
:1024A000000078888060100888F000000000F8A81C
:1024B00020202020207000000000CC4848484848D8
:1024C000483000000000CC48485050302020000028
:1024D0000000A8A8A8A87050505000000000D850D4
:1024E0005020205050D800000000D85050502020DC
:1024F000207000000000F8901020204048F80000F4
:10250000382020202020202020203800004040209B
:10251000202010101008080070101010101010105B
:1025200010107000205000000000000000000000AB
:102530000000000000000000000000FC402000003F
:1025400000000000000000000000000000304838DB
:10255000483C000000C040404070484848700000BF
:10256000000000000038484048300000001808080B
:1025700008384848483C0000000000000030487817
:102580004038000000182420207820202078000007
:1025900000000000003C48304038443800C0404053
:1025A0004070484848EC00000020200000602020D7
:1025B000207000000010100000301010101010E00B
:1025C00000C040404058506050C8000000E020204B
:1025D0002020202020F800000000000000F0A8A823
:1025E000A8A800000000000000F0484848EC0000E7
:1025F00000000000003048484830000000000000A3
:1026000000F04848487040E00000000000384848AA
:102610004838081C0000000000D8604040E000007E
:102620000000000000784030087800000000002022
:1026300020782020203800000000000000D8484802
:10264000483C00000000000000D85050202000004E
:102650000000000000A8A87050500000000000001A
:1026600000D8502050D800000000000000CC48489E
:10267000301020C0000000000078102020780000FA
:10268000181010101030101010101800101010102A
:10269000101010101010101060202020201020208A
:1026A0002020600068900000000000000000000092
:1026B000000000000000000000000000000000001A
:1026C000000000101010101010100000101000007A
:1026D0000012242448000000000000000000000058
:1026E0000000001212127E2424247E2424240000E0
:1026F0000000083C4A4A48380C0A0A4A4A3C080882
:1027000000000044A4A8A8B0541A2A2A4A44000091
:1027100000000030484848506EA494988976000024
:1027200000602020400000000000000000000000C9
:10273000000204080810101010101008080402000D
:102740000040201010080808080808101020400059
:10275000000000001010D63838D61010000000001D
:1027600000000000000808087F08080800000000BA
:102770000000000000000000000000006020204079
:1027800000000000000000007E00000000000000CB
:102790000000000000000000000000006060000079
:1027A000000002040404080810101020204040001B
:1027B00000000018244242424242424224180000D3
:1027C000000000083808080808080808083E00004B
:1027D0000000003C4242420204081020427E0000F9
:1027E0000000003C4242020418040242423C000045
:1027F000000000040C0C142424447F04041F000077
:102800000000007E4040407844020242443800000C
:10281000000000182440405C62424242221C00003A
:102820000000007E42040408081010101010000080
:102830000000003C4242422418244242423C000034
:102840000000003844424242463A02022418000086
:102850000000000000001818000000001818000018
:102860000000000000000010000000000010101028
:10287000000000020408102040201008040200009C
:102880000000000000007E00007E0000000000004C
:10289000000000402010080402040810204000003E
:1028A0000000003C424262040808080018180000BA
:1028B00000000038445AAAAAAAAAAA5C423C000016
:1028C0000000001010182828243C444242E7000071
:1028D000000000F8444444784442424244F8000076
:1028E0000000003E424280808080804244380000E8
:1028F000000000F8444242424242424244F8000092
:10290000000000FC424848784848404242FC000031
:10291000000000FC424848784848404040E0000041
:102920000000003C44448080808E84444438000091
:10293000000000E7424242427E42424242E700003B
:102940000000007C1010101010101010107C0000FF
:102950000000003E0808080808080808080888F071
:10296000000000EE444850705048484444EE0000D7
:10297000000000E0404040404040404042FE000037
:10298000000000EE6C6C6C6C6C54545454D6000017
:10299000000000C7626252524A4A4A4646E20000BC
:1029A00000000038448282828282828244380000A1
:1029B000000000FC424242427C40404040E00000B7
:1029C0000000003844828282828282B24C38060043
:1029D000000000FC4242427C4848444442E300007C
:1029E0000000003E4242402018040242427C0000A7
:1029F000000000FE9210101010101010103800008F
:102A0000000000E74242424242424242423C000051
:102A1000000000E742424424242828181010000037
:102A2000000000D654545454546C28282828000020
:102A3000000000E7422424181818242442E700006C
:102A4000000000EE44442828101010101038000038
:102A50000000007E840408081020204242FC000090
:102A6000001E1010101010101010101010101E006A
:102A70000000402020201010100808040404020266
:102A800000780808080808080808080808087800F6
:102A900000182400000000000000000000000000FA
:102AA000000000000000000000000000000000FF27
:102AB00000601000000000000000000000000000A6
:102AC0000000000000000038440C34444C36000084
:102AD00000000000C0404058644242426458000078
:102AE000000000000000001C22404040221C0000AA
:102AF000000000000602023E42424242463B000005
:102B0000000000000000003C42427E40423C0000C9
:102B1000000000000C12107C10101010107C00003F
:102B2000000000000000003E444438403C42423C6B
:102B300000000000C040405C6242424242E70000A8
:102B4000000000303000007010101010107C0000E9
:102B50000000000C0C00001C04040404040444786D
:102B600000000000C040404E4850704844EE000055
:102B7000000000107010101010101010107C0000D9
:102B800000000000000000FE4949494949ED0000ED
:102B900000000000000000DC6242424242E7000008
:102BA000000000000000003C42424242423C000063
:102BB00000000000000000D864424242645840E037
:102BC000000000000000001A26424242261A0207B6
:102BD00000000000000000EE3220202020F800005D
:102BE000000000000000003E42403C02427C000029
:102BF000000000000010107C10101010120C0000DB
:102C000000000000000000C642424242463B000075
:102C100000000000000000EE4444282810100000CE
:102C200000000000000000DB894A5A542424000000
:102C3000000000000000007624181818246E000020
:102C400000000000000000E7422424181810106063
:102C5000000000000000007E44081010227E0000EA
:102C6000000304040404040408040404040403002A
:102C700008080808080808080808080808080808D4
:102C800000C0202020202020102020202020C00054
:102C9000205A0400000000000000000000000000B6
:102CA0000000000000000000000000000000000024
:102CB0000000000000000000000000000000000014
:102CC0000000000000000000000000000000000004
:102CD00000000000000000000600060006000600DC
:102CE00006000600060002000400040004000000C4
:102CF00000000000060006000600000000000000C2
:102D000000000000066006600CC01980110022005F
:102D100000000000000000000000000000000000B3
:102D200000000000000000000000000000000000A3
:102D30000000000000000000084008400840084073
:102D40007FE07FE0104010801080108010807FE0D6
:102D50007FE0208020802080208000000000000094
:102D6000000000000000020002000F801AC032C004
:102D700033C032001A000E0007000380038002C037
:102D800032C03AC032C012800F00020002000000C0
:102D90000000000000000000708050808900890061
:102DA00089008A008A005C0075C005400A200A205C
:102DB000122012201220214021C00000000000003B
:102DC00000000000000000001C0036003600360045
:102DD00036003600340019E038805880CC80CC8032
:102DE000C680C700C31063903CE0000000000000F4
:102DF000000000003000380008000800100020002B
:102E000000000000000000000000000000000000C2
:102E100000000000000000000000000000000000B2
:102E200000000000002000400080010001000200BE
:102E30000200040004000400040004000400040074
:102E4000020002000100010000800040002000009C
:102E500000000000400020001000080008000400EE
:102E60000400020002000200020002000200020050
:102E700004000400080008001000200040000000CA
:102E8000000000000000000000000000020003003D
:102E90000200623072F00B800F807AF06230020024
:102EA000020002000000000000000000000000001E
:102EB0000000000000000000000000000000020010
:102EC00002000200020002007FF002000200020085
:102ED00002000200000000000000000000000000EE
:102EE00000000000000000000000000000000000E2
:102EF00000000000000000000000000000000000D2
:102F00000000000030003800080008001000200019
:102F100000000000000000000000000000000000B1
:102F200000000000000000007FE000000000000042
:102F30000000000000000000000000000000000091
:102F40000000000000000000000000000000000081
:102F50000000000000000000000000000000000071
:102F600000000000380038003800000000000000B9
:102F70000000000000200060004000C000800080D1
:102F80000100010002000200060004000400080025
:102F90000800100010003000200060004000000019
:102FA000000000000000000000000F00198030C089
:102FB00030C06060606060606060606060606060E1
:102FC000606030C030C019800F00000000000000B9
:102FD0000000000000000000000002003E000600AB
:102FE00006000600060006000600060006000600B1
:102FF00006000600060006003FC0000000000000BA
:10300000000000000000000000001F00218040C000
:1030100060C060C000C000800180030006000400A2
:1030200008001040204060407FC000000000000009
:10303000000000000000000000001E00630061802E
:1030400061800180018003000E000180008000C0CB
:1030500000C060C060C061801F0000000000000070
:1030600000000000000000000000018001800380DB
:1030700005800580098011801180218041807FF0CA
:10308000018001800180018007E000000000000055
:10309000000000000000000000003FC020002000F1
:1030A0002000200020002F00318020C000C000C080
:1030B00060C060C0418021801F000000000000004F
:1030C00000000000000000000000078018C030C0B1
:1030D000300020006000678068C0706060606060E1
:1030E00060602060304018C00F0000000000000049
:1030F000000000000000000000001FE030602040E1
:103100002080008000800100010002000200020017
:103110000600060006000600060000000000000091
:10312000000000000000000000001F8030C0606050
:1031300060606060304038C00F00138030C0606055
:1031400060606060606030C00F80000000000000C0
:10315000000000000000000000000F00308030C0C0
:10316000604060606060606060E031601E600060D0
:1031700000C000C0308031801E0000000000000050
:10318000000000000000000000000000000000003F
:10319000000000000700070007000000000000001A
:1031A000000000000700070007000000000000000A
:1031B000000000000000000000000000000000000F
:1031C00000000000060006000000000000000000F3
:1031D00000000000000006000600020004000400D9
:1031E00000000000000000000020004000800100FE
:1031F0000200040008001000200010000800040075
:1032000002000100008000400020000000000000DB
:1032100000000000000000000000000000000000AE
:10322000000000007FE00000000000007FE00000E0
:10323000000000000000000000000000000000008E
:103240000000000000000000200010000800040042
:1032500002000100008000400020004000800100CA
:103260000200040008001000200000000000000020
:103270000000000000000000000007C018602030BF
:1032800020303030303000E00180020002000200C7
:103290000000000007000700070000000000000019
:1032A0000000000000000000070018C0304033A0FC
:1032B00026A066A065A06D206D206D206D206D405C
:1032C00027803020304018C00F00000000000000B0
:1032D00000000000000000000000060006000A00D8
:1032E0000B00090009001100118010801F8020C010
:1032F00020C0204040404060F0F00000000000008E
:10330000000000000000000000007F0031C030C05D
:1033100030C030C030C031803F0030C030403060FD
:1033200030603060306030C07F80000000000000FE
:103330000000000000000000000007C018C030605E
:1033400030202020600060006000600060006000AD
:1033500060203020304018C00F0000000000000046
:1033600000000000000000000000FE00318030C0BE
:1033700030C030603060306030603060306030606D
:10338000306030C030C03180FE000000000000001E
:1033900000000000000000000000FFC060C06020CE
:1033A00060206000610061007F00610061006100D9
:1033B0006000602060206040FFC00000000000004E
:1033C00000000000000000000000FFC060C060209E
:1033D00060206000610061007F00610061006100A9
:1033E0006000600060006000F80000000000000065
:1033F000000000000000000000000F0018803040B6
:1034000030402040600060006000600063F060C0F9
:1034100060C030C030C018C00F00000000000000C5
:1034200000000000000000000000F0F0606060603C
:1034300060606060606060607FE0606060606060ED
:103440006060606060606060F0F00000000000009C
:10345000000000000000000000003FC00600060061
:10346000060006000600060006000600060006002C
:1034700006000600060006003FC000000000000035
:10348000000000000000000000001FE00300030037
:103490000300030003000300030003000300030014
:1034A00003000300030003000300630066003C0008
:1034B00000000000000000000000F3C06180630015
:1034C0006200640068006C007400760062006300B3
:1034D00061006180608060C0F1E0000000000000D9
:1034E00000000000000000000000F8006000600024
:1034F00060006000600060006000600060006000CC
:103500006000602060206040FFC0000000000000FC
:1035100000000000000000000000E0E061C061C0A9
:1035200071C071C072C072C052C05AC05AC05CC073
:103530004CC04CC04CC048C0E1E00000000000009E
:103540000000000000000000000071F03040384032
:1035500038402C402C402640264022402340214029
:1035600021C021C020C020C0F840000000000000A1
:10357000000000000000000000000F00198030C0B3
:10358000304060606060606060606060606060608B
:103590006060304030C019800F0000000000000063
:1035A00000000000000000000000FF0060C060603C
:1035B000606060606060606061C07F0060006000AB
:1035C0006000600060006000F80000000000000083
:1035D000000000000000000000000F00198030C053
:1035E000304060606060606060606060606060602B
:1035F0006E60324033C019800F0001E000C000004F
:1036000000000000000000000000FF8060C060605B
:1036100060606060606060C07F00620063006100A5
:10362000618060C060C06060F07000000000000059
:10363000000000000000000000001F4030C060409B
:103640006040600070003C001F0007C001C000E047
:1036500040604060606030C00F80000000000000EB
:10366000000000000000000000007FE046208610FF
:10367000861006000600060006000600060006008A
:1036800006000600060006001F8000000000000083
:103690000000000000000000000078E030403040F2
:1036A000304030403040304030403040304030409A
:1036B00030403040304018800F0000000000000013
:1036C00000000000000000000000F0E060402080EA
:1036D00020803080308011001100190019000A008C
:1036E0000A000E000C0004000400000000000000AE
:1036F00000000000000000000000EF7046204220A3
:1037000062206220264026402740274039403980E9
:1037100019801980118011001100000000000000C4
:103720000000000000000000000079E03080108000
:10373000188009000D0006000400060006000B00BA
:1037400009001180108020C071E00000000000001E
:1037500000000000000000000000F0F060202040A9
:103760003040108018801D000D000E00060006007D
:1037700006000600060006001F8000000000000092
:10378000000000000000000000003FE0304060C08A
:1037900040800180010002000200040004000800D3
:1037A00018001020302020407FC0000000000000E2
:1037B0000000000007C0040004000400040004002E
:1037C00004000400040004000400040004000400D9
:1037D00004000400040004000400040007C000000A
:1037E0000000000000000000200020001000100079
:1037F00008000800080004000400020002000300A2
:1038000001000100008000800040004000400020D6
:10381000000000003E000200020002000200020060
:103820000200020002000200020002000200020088
:103830000200020002000200020002003E0000003E
:1038400000000600090010800000000000000000D9
:103850000000000000000000000000000000000068
:103860000000000000000000000000000000000058
:103870000000000000000000000000000000000048
:103880000000000000000000000000000000000038
:103890000000000000000000000000000000FFF039
:1038A00000000000180006000000000000000000FA
:1038B0000000000000000000000000000000000008
:1038C00000000000000000000000000000000000F8
:1038D00000000000000000000000000000000000E8
:1038E000000000000F8030C030C000C007C038C0EA
:1038F00070C060C060C071D03E7000000000000069
:1039000000000000000000001000700030003000D7
:103910003000300033803CC0386030603060306050
:1039200030603060304038C0278000000000000068
:103930000000000000000000000000000000000087
:10394000000000000F003180318061806000600065
:1039500060006040304030800F0000000000000038
:103960000000000000000000004003C000C000C0D4
:1039700000C000C01EC031C030C060C060C060C0A8
:1039800060C060C020C031E01E8000000000000068
:103990000000000000000000000000000000000027
:1039A00000000000078018C01040306030603FE029
:1039B0003000300018201840078000000000000090
:1039C0000000000000000000000003C006600C6062
:1039D0000C000C007F800C000C000C000C000C0094
:1039E0000C000C000C000C003F80000000000000E8
:1039F00000000000000000000000000000000000C7
:103A0000000000000FE01B603180318031801980A0
:103A10001F0030003F0033C060C060C071C01F0095
:103A200000000000000000001000700030003000B6
:103A300030003000378038C030C030C030C030C0B7
:103A400030C030C030C030C079E00000000000005D
:103A5000000000000000000000000600060000005A
:103A6000000002003E0006000600060006000600F8
:103A700006000600060006003FC00000000000002F
:103A80000000000000000000000003800380000030
:103A9000000000800F800180018001800180018092
:103AA00001800180018001800180018033003E009F
:103AB0000000000000000000100070003000300026
:103AC0003000300031C031003100320036003A00A1
:103AD00031003180308030C079E00000000000000B
:103AE000000000000000000002003E00060006008A
:103AF0000600060006000600060006000600060096
:103B000006000600060006003FC00000000000009E
:103B100000000000000000000000000000000000A5
:103B200000000000ECE077606660666066606660DA
:103B30006660666066606660FFF00000000000007E
:103B40000000000000000000000000000000000075
:103B500000000000778038C030C030C030C030C0B6
:103B600030C030C030C030C079E00000000000003C
:103B70000000000000000000000000000000000045
:103B8000000000000F00198030C06060606060605D
:103B90006060606030C030C00F00000000000000B6
:103BA0000000000000000000000000000000000015
:103BB00000000000778038C03060306030603060D6
:103BC0003060306030C038C03780300030007C005A
:103BD00000000000000000000000000000000000E5
:103BE000000000001E4031C030C060C060C060C036
:103BF00060C060C020C031C01EC000C000C003E073
:103C000000000000000000000000000000000000B4
:103C100000000000F9C01A601C60180018001800AD
:103C20001800180018001800FF0000000000000035
:103C30000000000000000000000000000000000084
:103C4000000000000FC038C0304030401C000F00A2
:103C500003C020C020C031C03F8000000000000031
:103C6000000000000000000000000000040004004C
:103C70000C000C007F800C000C000C000C000C00F1
:103C80000C000C000C400C400780000000000000FD
:103C90000000000000000000000000000000000024
:103CA0000000104071C030C030C030C030C030C0E3
:103CB00030C030C030C039E01E800000000000007D
:103CC00000000000000000000000000000000000F4
:103CD0000000000078E0304010801080188009005B
:103CE0000D000D00060006000400000000000000AA
:103CF00000000000000000000000000000000000C4
:103D000000000000EF704620622026402640374029
:103D1000398019801980198010000000000000000F
:103D20000000000000000000000000000000000093
:103D3000000000003DE0188008800D00060006002D
:103D400007000900108010C079E0000000000000AA
:103D50000000000000000000000000000000000063
:103D60000000000079E01080108010800900090038
:103D70000D000600060006000400040024003800C0
:103D80000000000000000000000000000000000033
:103D9000000000003F802180230022000600040074
:103DA0000C001840104030C03F80000000000000B0
:103DB0000000000000C0010001000100010001003E
:103DC00001000100010002000400020001000100E6
:103DD00001000100010001000100010000C000001D
:103DE00002000200020002000200020002000200C3
:103DF00002000200020002000200020002000200B3
:103E000002000200020002000200020002000200A2
:103E1000000000003000080008000800080008004A
:103E20000800080008000400020004000800080060
:103E30000800080008000800080008003000000022
:103E4000000038004420432001C0000000000000B2
:103E50000000000000000000000000000000000062
:103E60000000000000000000000000000000000052
:103E70000000000000000000000000000000000042
:103E80000000000000000000000000000000000032
:103E90000000000000000000000000000000000022
:103EA0000000000000000000000000000000000012
:103EB0000000000000000000000000000000000002
:103EC00000000000000000000000000000000000F2
:103ED00000000000000000000000000000000000E2
:103EE00000000000000000000000000000000000D2
:103EF00000000000000000000000000003C003C03C
:103F000003C003C003C003C001C001800180018061
:103F1000018001800180018001800000000000001C
:103F2000018003C003C00180000000000000000009
:103F30000000000000000000000000000000000081
:103F40000000000000000000000000000000000071
:103F50000000000000000000000000000000000061
:103F60000000000000000000000000000000000051
:103F7000000000000318073807380E700C6018C0E6
:103F8000318021000000000000000000000000005F
:103F90000000000000000000000000000000000021
:103FA0000000000000000000000000000000000011
:103FB0000000000000000000000000000000000001
:103FC00000000000000000000000000000000000F1
:103FD00000000000000000000000000000000000E1
:103FE00000000000000000000000000000000000D1
:103FF00000000000000000000000000004080408A9
:104000000408040804087FFE7FFE7FFE08100810E5
:1040100008100810081008107FFE7FFE7FFE183081
:1040200010201020102010200000000000000000D0
:104030000000000000000000000000000000000080
:104040000000000000000000000000000000000070
:104050000000000000000000000000000000000060
:104060000000000000000000000000000000000050
:1040700000000000000000000100010003C00D303E
:1040800009181918193819381D000D000F000700FC
:1040900003C001E001F00130013801183918391866
:1040A00031183130196007C0010001000100000023
:1040B0000000000000000000000000000000000000
:1040C00000000000000000000000000000000000F0
:1040D00000000000000000000000000000000000E0
:1040E00000000000000000000000000000000000D0
:1040F00000000000000000000000000038106C10FC
:104100004420C620C640C640C640C680C680448003
:104110006D38396C024402C602C604C604C608C61D
:1041200008C60844106C10380000000000000000B1
:10413000000000000000000000000000000000007F
:10414000000000000000000000000000000000006F
:10415000000000000000000000000000000000005F
:10416000000000000000000000000000000000004F
:104170000000000000000000000000000F00190017
:104180003180318031803180310033003A001C00B1
:10419000387C3C104C10CE10C620C720C320C1C0B4
:1041A000C1C260E6317C1E38000000000000000043
:1041B00000000000000000000000000000000000FF
:1041C00000000000000000000000000000000000EF
:1041D00000000000000000000000000000000000DF
:1041E00000000000000000000000000000000000CF
:1041F0000000000038003C003C000C000C000800EF
:10420000300060000000000000000000000000001E
:10421000000000000000000000000000000000009E
:10422000000000000000000000000000000000008E
:10423000000000000000000000000000000000007E
:10424000000000000000000000000000000000006E
:10425000000000000000000000000000000000005E
:10426000000000000000000000000000000000004E
:1042700000000000000200040008001800300020C8
:104280000060004000C000C001800180018001800A
:104290000180018001800180018000C000C00040D9
:1042A0000060002000300018000800040002000038
:1042B00000000000000000000000000000000000FE
:1042C00000000000000000000000000000000000EE
:1042D00000000000000000000000000000000000DE
:1042E00000000000000000000000000000000000CE
:1042F0000000000040002000100018000C00040026
:10430000060002000300030001800180018001809B
:10431000018001800180018001800300030003000F
:10432000060004000C0018001000200040000000EF
:10433000000000000000000000000000000000007D
:10434000000000000000000000000000000000006D
:10435000000000000000000000000000000000005D
:10436000000000000000000000000000000000004D
:10437000000000000000000000000000000000003D
:1043800000C001C001C030C6388E1C9C06B001C000
:1043900001C006B01C9C388E318601C001C001C02E
:1043A000000000000000000000000000000000000D
:1043B00000000000000000000000000000000000FD
:1043C00000000000000000000000000000000000ED
:1043D00000000000000000000000000000000000DD
:1043E00000000000000000000000000000000000CD
:1043F00000000000000000000000000000000000BD
:10440000000000800080008000800080008000802C
:104410003FFE0080008000800080008000800080DF
:10442000000000000000000000000000000000008C
:10443000000000000000000000000000000000007C
:10444000000000000000000000000000000000006C
:10445000000000000000000000000000000000005C
:10446000000000000000000000000000000000004C
:10447000000000000000000000000000000000003C
:10448000000000000000000000000000000000002C
:10449000000000000000000000000000000000001C
:1044A00038003C003C000C000C00080030006000AC
:1044B00000000000000000000000000000000000FC
:1044C00000000000000000000000000000000000EC
:1044D00000000000000000000000000000000000DC
:1044E00000000000000000000000000000000000CC
:1044F00000000000000000000000000000000000BC
:1045000000000000000000000000000000000000AB
:104510007FFE00000000000000000000000000001E
:10452000000000000000000000000000000000008B
:10453000000000000000000000000000000000007B
:10454000000000000000000000000000000000006B
:10455000000000000000000000000000000000005B
:10456000000000000000000000000000000000004B
:10457000000000000000000000000000000000003B
:10458000000000000000000000000000000000002B
:10459000000000000000000000000000000000001B
:1045A00018003C003C001800000000000000000063
:1045B00000000000000000000000000000000000FB
:1045C00000000000000000000000000000000000EB
:1045D00000000000000000000000000000000000DB
:1045E00000000000000000000000000000000000CB
:1045F000000000000000000200060004000C00089B
:1046000000180010003000200060004000C0008052
:104610000180010003000200060004000C000800F5
:104620001800100030002000600040000000000072
:10463000000000000000000000000000000000007A
:10464000000000000000000000000000000000006A
:10465000000000000000000000000000000000005A
:10466000000000000000000000000000000000004A
:1046700000000000000000000000000003C0062051
:104680000C30181818181808300C300C300C300C7E
:10469000300C300C300C300C300C300C1808181862
:1046A00018180C30062003C00000000000000000B5
:1046B00000000000000000000000000000000000FA
:1046C00000000000000000000000000000000000EA
:1046D00000000000000000000000000000000000DA
:1046E00000000000000000000000000000000000CA
:1046F00000000000000000000000000000800180B9
:104700001F80018001800180018001800180018083
:104710000180018001800180018001800180018091
:104720000180018003C01FF80000000000000000AD
:104730000000000000000000000000000000000079
:104740000000000000000000000000000000000069
:104750000000000000000000000000000000000059
:104760000000000000000000000000000000000049
:1047700000000000000000000000000007E0083812
:104780001018200C200C300C300C000C00180018F5
:104790000030006000C0018003000200040408042F
:1047A0001004200C3FF83FF800000000000000005B
:1047B00000000000000000000000000000000000F9
:1047C00000000000000000000000000000000000E9
:1047D00000000000000000000000000000000000D9
:1047E00000000000000000000000000000000000C9
:1047F00000000000000000000000000007C018607A
:1048000030303018301830180018001800300060B0
:1048100003C0007000180008000C000C300C300CB5
:1048200030083018183007C00000000000000000F9
:104830000000000000000000000000000000000078
:104840000000000000000000000000000000000068
:104850000000000000000000000000000000000058
:104860000000000000000000000000000000000048
:104870000000000000000000000000000060006078
:1048800000E000E001600160026004600460086014
:10489000086010603060206040607FFC0060006055
:1048A00000600060006003FC0000000000000000E9
:1048B00000000000000000000000000000000000F8
:1048C00000000000000000000000000000000000E8
:1048D00000000000000000000000000000000000D8
:1048E00000000000000000000000000000000000C8
:1048F0000000000000000000000000000FFC0FFCA2
:1049000010001000100010001000100013E0143010
:1049100018181008000C000C000C000C300C300CA7
:1049200020182018183007C0000000000000000008
:104930000000000000000000000000000000000077
:104940000000000000000000000000000000000067
:104950000000000000000000000000000000000057
:104960000000000000000000000000000000000047
:1049700000000000000000000000000001E0061838
:104980000C180818180010001000300033E0363002
:1049900038183808300C300C300C300C300C180C37
:1049A00018080C180E3003E00000000000000000A2
:1049B00000000000000000000000000000000000F7
:1049C00000000000000000000000000000000000E7
:1049D00000000000000000000000000000000000D7
:1049E00000000000000000000000000000000000C7
:1049F0000000000000000000000000001FFC1FFC81
:104A000010083010201020200020004000400040FE
:104A1000008000800100010001000100030003008C
:104A2000030003000300030000000000000000007A
:104A30000000000000000000000000000000000076
:104A40000000000000000000000000000000000066
:104A50000000000000000000000000000000000056
:104A60000000000000000000000000000000000046
:104A700000000000000000000000000007E00C3013
:104A80001818300C300C300C380C38081E180F2059
:104A900007C018F030783038601C600C600C600C77
:104AA000600C3018183007C0000000000000000043
:104AB00000000000000000000000000000000000F6
:104AC00000000000000000000000000000000000E6
:104AD00000000000000000000000000000000000D6
:104AE00000000000000000000000000000000000C6
:104AF00000000000000000000000000007C01820B7
:104B0000301030186008600C600C600C600C600C99
:104B1000701C302C186C0F8C000C00180018001042
:104B20003030306030C00F80000000000000000016
:104B30000000000000000000000000000000000075
:104B40000000000000000000000000000000000065
:104B50000000000000000000000000000000000055
:104B60000000000000000000000000000000000045
:104B70000000000000000000000000000000000035
:104B800000000000000000000000018003C003C01E
:104B90000180000000000000000000000000000094
:104BA000018003C003C0018000000000000000007D
:104BB00000000000000000000000000000000000F5
:104BC00000000000000000000000000000000000E5
:104BD00000000000000000000000000000000000D5
:104BE00000000000000000000000000000000000C5
:104BF00000000000000000000000000000000000B5
:104C0000000000000000000000000000038003809E
:104C10000380000000000000000000000000000011
:104C20000000038003800380018003000300000074
:104C30000000000000000000000000000000000074
:104C40000000000000000000000000000000000064
:104C50000000000000000000000000000000000054
:104C60000000000000000000000000000000000044
:104C70000000000000000000000000000004000828
:104C80000010002000400080010002000400080025
:104C90001000100008000400020001000080004025
:104CA00000200010000800040000000000000000C8
:104CB00000000000000000000000000000000000F4
:104CC00000000000000000000000000000000000E4
:104CD00000000000000000000000000000000000D4
:104CE00000000000000000000000000000000000C4
:104CF00000000000000000000000000000000000B4
:104D0000000000000000000000007FFE0000000026
:104D10000000000000007FFE000000000000000016
:104D20000000000000000000000000000000000083
:104D30000000000000000000000000000000000073
:104D40000000000000000000000000000000000063
:104D50000000000000000000000000000000000053
:104D60000000000000000000000000000000000043
:104D70000000000000000000000000002000100003
:104D80000800040002000100008000400020001024
:104D90000008000800100020004000800100020010
:104DA00004000800100020000000000000000000C7
:104DB00000000000000000000000000000000000F3
:104DC00000000000000000000000000000000000E3
:104DD00000000000000000000000000000000000D3
:104DE00000000000000000000000000000000000C3
:104DF00000000000000000000000000003E00C18AC
:104E0000180C10063006380638063806000C001854
:104E1000007000C000800080008000800000000062
:104E2000018003C003C001800000000000000000FA
:104E30000000000000000000000000000000000072
:104E40000000000000000000000000000000000062
:104E50000000000000000000000000000000000052
:104E60000000000000000000000000000000000042
:104E700000000000000000000000000003E0061039
:104E80000C08180430D431B2213263326322662216
:104E90006622662266626664666426E83330300203
:104EA0001004180C0C1803E00000000000000000C3
:104EB00000000000000000000000000000000000F2
:104EC00000000000000000000000000000000000E2
:104ED00000000000000000000000000000000000D2
:104EE00000000000000000000000000000000000C2
:104EF00000000000000000000000000003800380AC
:104F00000380038004C004C004C004C00C400860D7
:104F10000860086008201FF0103010301030201892
:104F200020182018601CF83E00000000000000005F
:104F30000000000000000000000000000000000071
:104F40000000000000000000000000000000000061
:104F50000000000000000000000000000000000051
:104F60000000000000000000000000000000000041
:104F70000000000000000000000000007FE0183882
:104F80001818180C180C180C180C180C18181830C5
:104F90001FE01818180C180418061806180618062A
:104FA0001806180C18187FF0000000000000000020
:104FB00000000000000000000000000000000000F1
:104FC00000000000000000000000000000000000E1
:104FD00000000000000000000000000000000000D1
:104FE00000000000000000000000000000000000C1
:104FF00000000000000000000000000003E0061CAC
:10500000080C1806300230023000600060006000BA
:1050100060006000600060006000600030023002EC
:10502000100418080C1003E000000000000000004D
:105030000000000000000000000000000000000070
:105040000000000000000000000000000000000060
:105050000000000000000000000000000000000050
:105060000000000000000000000000000000000040
:105070000000000000000000000000007FC0187069
:1050800018181808180C180C180618061806180610
:10509000180618061806180618061804180C180C16
:1050A0001818181818607FC00000000000000000E9
:1050B00000000000000000000000000000000000F0
:1050C00000000000000000000000000000000000E0
:1050D00000000000000000000000000000000000D0
:1050E00000000000000000000000000000000000C0
:1050F0000000000000000000000000007FFC180C11
:105100001804180218021800180018101810183087
:105110001FF0183018101810180018001800180286
:1051200018021804180C7FFC0000000000000000AA
:10513000000000000000000000000000000000006F
:10514000000000000000000000000000000000005F
:10515000000000000000000000000000000000004F
:10516000000000000000000000000000000000003F
:105170000000000000000000000000007FFC181C80
:105180001804180218021800180018101810183007
:105190001FF01830181018101810180018001800F8
:1051A0001800180018007E00000000000000000039
:1051B00000000000000000000000000000000000EF
:1051C00000000000000000000000000000000000DF
:1051D00000000000000000000000000000000000CF
:1051E00000000000000000000000000000000000BF
:1051F00000000000000000000000000003C00C30B0
:1052000008101818300830082000600060006000A6
:1052100060006000607E6018601820183018301838
:10522000101818180C2007C0000000000000000033
:10523000000000000000000000000000000000006E
:10524000000000000000000000000000000000005E
:10525000000000000000000000000000000000004E
:10526000000000000000000000000000000000003E
:10527000000000000000000000000000FC3F300CB7
:10528000300C300C300C300C300C300C300C300C3E
:105290003FFC300C300C300C300C300C300C300C2F
:1052A000300C300C300CFC3F00000000000000000F
:1052B00000000000000000000000000000000000EE
:1052C00000000000000000000000000000000000DE
:1052D00000000000000000000000000000000000CE
:1052E00000000000000000000000000000000000BE
:1052F0000000000000000000000000001FF8018016
:105300000180018001800180018001800180018095
:105310000180018001800180018001800180018085
:105320000180018001801FF80000000000000000E3
:10533000000000000000000000000000000000006D
:10534000000000000000000000000000000000005D
:10535000000000000000000000000000000000004D
:10536000000000000000000000000000000000003D
:1053700000000000000000000000000007FE0060C8
:10538000006000600060006000600060006000601D
:10539000006000600060006000600060006000600D
:1053A0000060006000600060706070C071803F004D
:1053B00000000000000000000000000000000000ED
:1053C00000000000000000000000000000000000DD
:1053D00000000000000000000000000000000000CD
:1053E00000000000000000000000000000000000BD
:1053F0000000000000000000000000007E7C18306B
:1054000018201860184018801880190019001B0017
:105410001D801D8018C018C0186018601830183022
:105420001830181818187E3E000000000000000018
:10543000000000000000000000000000000000006C
:10544000000000000000000000000000000000005C
:10545000000000000000000000000000000000004C
:10546000000000000000000000000000000000003C
:105470000000000000000000000000007E00180096
:10548000180018001800180018001800180018005C
:10549000180018001800180018001800180018024A
:1054A00018021804180C7FFC000000000000000027
:1054B00000000000000000000000000000000000EC
:1054C00000000000000000000000000000000000DC
:1054D00000000000000000000000000000000000CC
:1054E00000000000000000000000000000000000BC
:1054F000000000000000000000000000F00F381C59
:10550000381C381C381C382C2C2C2C2C2C2C2C4CBB
:105510002C4C264C264C264C268C228C238C238CFF
:10552000230C230C210CF13F0000000000000000C0
:10553000000000000000000000000000000000006B
:10554000000000000000000000000000000000005B
:10555000000000000000000000000000000000004B
:10556000000000000000000000000000000000003B
:10557000000000000000000000000000F01F3804E0
:1055800038042C042C042604260423042304218438
:10559000218420C420C42064206420342034201CB2
:1055A000201C200C200CF80400000000000000006B
:1055B00000000000000000000000000000000000EB
:1055C00000000000000000000000000000000000DB
:1055D00000000000000000000000000000000000CB
:1055E00000000000000000000000000000000000BB
:1055F00000000000000000000000000003C00C30AC
:1056000018181008300C300C600460066006600644
:10561000600660066006600660062006300C300CEE
:10562000100818180C3003C0000000000000000033
:10563000000000000000000000000000000000006A
:10564000000000000000000000000000000000005A
:10565000000000000000000000000000000000004A
:10566000000000000000000000000000000000003A
:105670000000000000000000000000007FF018188B
:10568000180C180618061806180618061806180C1E
:1056900018181FE01800180018001800180018004B
:1056A0001800180018007E00000000000000000034
:1056B00000000000000000000000000000000000EA
:1056C00000000000000000000000000000000000DA
:1056D00000000000000000000000000000000000CA
:1056E00000000000000000000000000000000000BA
:1056F00000000000000000000000000003C00C30AB
:1057000018181008300C300C600660066006600641
:10571000600660066006600660066006278438CC76
:10572000386C18780C7003E00032003C001C00005C
:105730000000000000000000000000000000000069
:105740000000000000000000000000000000000059
:105750000000000000000000000000000000000049
:105760000000000000000000000000000000000039
:105770000000000000000000000000007FE018387A
:105780001818180C180C180C180C180C18181830BD
:105790001FE018C018C01860186018601830183062
:1057A0001830181818187E1E0000000000000000B5
:1057B00000000000000000000000000000000000E9
:1057C00000000000000000000000000000000000D9
:1057D00000000000000000000000000000000000C9
:1057E00000000000000000000000000000000000B9
:1057F0000000000000000000000000000FC8187842
:105800003018601860086008600070003C001F00DD
:1058100007C001F000780018001C400C400C600C20
:10582000200C3018383027E0000000000000000095
:105830000000000000000000000000000000000068
:105840000000000000000000000000000000000058
:105850000000000000000000000000000000000048
:105860000000000000000000000000000000000038
:105870000000000000000000000000003FFC318438
:105880002186418241820180018001800180018066
:105890000180018001800180018001800180018000
:1058A00001800180018007E000000000000000008E
:1058B00000000000000000000000000000000000E8
:1058C00000000000000000000000000000000000D8
:1058D00000000000000000000000000000000000C8
:1058E00000000000000000000000000000000000B8
:1058F000000000000000000000000000FC3E300836
:1059000030083008300830083008300830083008D7
:1059100030083008300830083008300830083008C7
:10592000300818101C2007C0000000000000000014
:105930000000000000000000000000000000000067
:105940000000000000000000000000000000000057
:105950000000000000000000000000000000000047
:105960000000000000000000000000000000000037
:105970000000000000000000000000007C1E180C69
:105980001808180818080C100C100C100C100C201B
:105990000620062006200640034003400340038003
:1059A00001800180010001000000000000000000F3
:1059B00000000000000000000000000000000000E7
:1059C00000000000000000000000000000000000D7
:1059D00000000000000000000000000000000000C7
:1059E00000000000000000000000000000000000B7
:1059F000000000000000000000000000F3CF6186FE
:105A000061842184208430C431C431C431C831C898
:105A100011C812481A681A681A701C700C700C7041
:105A20000C300C20082008200000000000000000BE
:105A30000000000000000000000000000000000066
:105A40000000000000000000000000000000000056
:105A50000000000000000000000000000000000046
:105A60000000000000000000000000000000000036
:105A70000000000000000000000000007C3E18084C
:105A800018100C100C2006200640034003800180F3
:105A90000180018001C002C002600460047008300F
:105AA00008301818101C7C3E0000000000000000A8
:105AB00000000000000000000000000000000000E6
:105AC00000000000000000000000000000000000D6
:105AD00000000000000000000000000000000000C6
