:020000040800F2
:10000000000C002005150008190300081B03000858
:100010001F03000823030008270300080000000056
:100020000000000000000000000000002B0300089A
:100030002D030008000000002F0300083103000812
:100040001F1500081F1500081F1500081F150008C0
:100050001F1500081F1500081F1500081F150008B0
:100060001F1500081F1500081F1500081F150008A0
:100070001F1500081F1500081F1500081F15000890
:100080001F1500081F1500081F1500081F15000880
:100090001F1500081F1500081F1500081F15000870
:1000A0001F150008D71200081F1500081F150008AB
:1000B000691200081F1500081F1500081F15000809
:1000C0001F1500081F1500081F1500081F15000840
:1000D0001F1500087B1400081F1500081F150008D5
:1000E0001F1500081F1500081F1500081F15000820
:1000F0001F1500081F1500081F1500081F15000810
:100100001F1500081F1500081F1500081F150008FF
:100110001F1500081F1500081F1500081F150008EF
:100120001F1500081F1500081F1500081F150008DF
:1001300000F002F800F03FF80AA090E8000C8244BA
:100140008344AAF10107DA4501D100F034F8AFF297
:10015000090EBAE80F0013F0010F18BFFB1A43F0A5
:1001600001031847C0220100E0220100103A24BF19
:1001700078C878C1FAD8520724BF30C830C144BF0C
:1001800004680C607047000000230024002500264E
:10019000103A28BF78C1FBD8520728BF30C148BFEA
:1001A0000B607047642903F0BB82002070471FB5C5
:1001B0001FBD10B510BD03F07BFB1146FFF7F7FF25
:1001C00000F008F803F099FB03B4FFF7F2FF03BC5B
:1001D00001F0F8F84FF4A06001F038FF4FF4E1515E
:1001E000642001F013F84FF4E13001F0FAF801F067
:1001F0007FF800F093FF01203F49086000F07BFE8C
:100200004FF6FF7000F0D1FA2823F02219460020A3
:1002100000F061FBC823F0221946002000F05BFBD0
:100220007823F0221946002000F055FB00227821A7
:10023000084600F042FB5DE0304800883049088005
:1002400000F04BFF2F4908800846008803F035FC7A
:1002500006464FF033322C4B03F042FC04460D4669
:100260002648008803F029FC06464FF06632274BEB
:1002700003F036FC804622462B4603F049FB8246BB
:1002800003F0EEFB1D4908801F202149088021480A
:100290000088C01C82B219480388194801881D488B
:1002A000008800F018FB1748008814490880194896
:1002B0000088C01C1749088008460088EF2819DB11
:1002C000002008804FF6FF7000F06FFA0020104900
:1002D00008802823F022194600F0FDFAC823F022F6
:1002E0001946002000F0F7FA7823F0221946002082
:1002F00000F0F1FAA0E70000A8012142060000206A
:1003000004000020080000203333D33F6666E63F38
:100310002000002000000020704700BFFEE700BF63
:10032000FEE700BFFEE700BFFEE77047704770477B
:10033000704700000CB50020019000906C480068E8
:1003400040F480306A49086000BF6948006800F4E2
:10035000003000900198401C0190009818B9019855
:10036000B0F5A06FF1D16248006800F4003010B120
:100370000120009001E0002000900098012843D166
:100380005C48006840F010005A4908600846006860
:1003900020F0030008600846006840F00200086092
:1003A00053484068524948600846406848600846DB
:1003B000406840F4806048600846406820F47C1043
:1003C00048600846406840F4E81048600846006805
:1003D00040F08070086000BF4548006800F0007081
:1003E0000028F9D04248406820F0030040494860A6
:1003F0000846406840F00200486000BF3C48406842
:1004000000F00C000828F9D10CBD10B5FFF792FFE1
:1004100010BD10B53648006840F00100344908604E
:100420000846406834490840314948600846006839
:10043000324908402E4908600846006820F48020B0
:1004400008600846406820F4FE0048604FF41F0032
:100450008860FFF7DAFF4FF000602949086010BD9F
:1004600010B5002100200022214B5B6803F00C0135
:1004700021B1042906D0082928D107E0214B224CBC
:10048000236027E01F4B204C236023E0184B5B6860
:1004900003F47010164B5B6803F48032022303EB05
:1004A000904022B9194B4343174C23600DE0104B89
:1004B0005B6803F4003323B1144B4343124C2360B5
:1004C00003E0104B4343104C236003E00D4B0E4CF4
:1004D000236000BF00BF064B5B68C3F303130C4CE3
:1004E000E15C094B1B68CB40074C236010BD00004A
:1004F00000100240002002400000FFF8FFFFF6FE5F
:1005000008ED00E000127A000C00002000093D0018
:100510001000002070B50546002405E0601CC4B240
:10052000C82C01DD002070BD0221414801F04BFFC5
:100530000028F3D029463E4801F0F2FE002405E0F1
:10054000601CC4B2C82C01DD0020ECE70121384852
:1005500001F039FF0028F3D0354801F0E3FEC0B2C6
:10056000E1E708B5012141F2040001F007FBA020FA
:10057000ADF8000018208DF8030003208DF802006C
:1005800069462C4801F03EF8A0212A4801F0E7F81E
:100590000020294908804FF482704880002088801C
:1005A0000220C88001200881400248810020888103
:1005B000C881072008821E4801F0DCFD01211C488B
:1005C00001F07DFEFF20FFF7A5FF08BD184909884F
:1005D0004FF6C7721140164A11801146098801432F
:1005E00011801146098841F04001118070472DE9C2
:1005F000F04105460E460027002414E006E0781C72
:10060000C7B2C82F02DD0020BDE8F08102210848F2
:1006100001F0D9FE0028F2D0295D054801F080FEE6
:100620000027601C84B2B442E8DB0120ECE7000044
:1006300000300140000801404400002008B50121BD
:10064000142001F09BFA5220ADF8000010208DF824
:10065000030003208DF802006946F84800F0D2FF3D
:100660005221F64801F07BF81020ADF800008DF81B
:10067000030003208DF802006946F14800F0C2FF34
:100680001021EF4801F06BF80020EE490860EE49B8
:10069000C1F89001ED490860782000F066FE012065
:1006A000E949C1F88401FFF75CFF08BD2DE9F0417D
:1006B00005460E464FF6FF70B6FBF0F7002416E035
:1006C000BC420CD14FF6FF70B6FBF0F100FB116895
:1006D000C4EB044148194146FFF789FF06E0C4EB2B
:1006E000044148194FF6FF71FFF781FF641CBC42BB
:1006F000E6D9BDE8F08101B50020D4491431086085
:1007000001216846FFF7D2FF08BD01B50120CF499E
:100710001431086001216846FFF7C8FF08BD38B5ED
:1007200004460020009020128DF80000E0B28DF801
:1007300001000120C5491431086002216846FFF715
:10074000B5FF38BD2DE9F04104460D4616461F465B
:100750002A20FFF7D0FF2012FFF7D7FFE0B2FFF704
:10076000D4FF3012FFF7D1FFF0B2FFF7CEFF2B20FE
:10077000FFF7C1FF2812FFF7C8FFE8B2FFF7C5FF78
:100780003812FFF7C2FFF8B2FFF7BFFF2C20FFF7C8
:10079000B2FFBDE8F0810120AC490C310860704720
:1007A0000020AA490C3108607047F8B505460020C2
:1007B000009028128DF80000E8B28DF80100EF23B8
:1007C0001A4600210846FFF7BDFF00240DE09DF802
:1007D00000009F4901F814009DF80100012101EB80
:1007E00044019B4A5054601C84B2B4F5107FEEDB88
:1007F0000120964914310860002606E04FF490610C
:100800009348FFF753FF701C86B2642EF6DBF8BDE9
:100810002DE9F05F0746884691469A46DDF828B0F4
:10082000002400250026A9EB0700401CAAEB0801C4
:10083000491C48434500B5F5906F03D9A5F590666E
:100840004FF4906553464A4641463846FFF77AFFD3
:1008500021E000240AE04FEA2B207D4A02F8140030
:100860006000401C02F800B0601C84B2B4EB550F6D
:10087000F1D3012075491431086029467448FFF707
:1008800015FF06B908E0B6F5906F02D9A6F5906697
:1008900001E035460026DCE700BFBDE8F09F70B5FB
:1008A00004460D462B46224629462046FFF74AFFBE
:1008B00068480088FFF733FF70BD70B504460D46E9
:1008C00016462B46224629462046FFF73BFF304678
:1008D000FFF725FF70BD2DE9FF4F87B0074688461B
:1008E000914600200590049001900A9880452AD1F5
:1008F0004A46414638460A9BFFF724FF00200190F4
:100900000FE0544800880112514A019802F8101073
:100910005048017801984000401C11540198401C37
:100920000190A9EB070101988142EAD801204749CB
:1009300014310860A9EB070041004548FFF7B6FEF7
:100940000BB0BDE8F08FA9EB07040A98A0EB0805EF
:100950000397CDF80880002C02DD4FF0010A06E075
:1009600014B94FF0000A02E04FF0FF3A6442002D44
:1009700002DD4FF0010B06E015B94FF0000B02E06D
:100980004FF0FF3B6D42AC4201DD264600E02E46B3
:100990000020069021E0029A91B2039A90B2FFF7EC
:1009A0007EFF0598204405900498284404900598FB
:1009B000B04205DD0598801B0590039850440390D4
:1009C0000498B04205DD0498801B049002985844B6
:1009D00002900698401C80B20690711C06988842CE
:1009E000D9DD00BFACE72DE9F04104460D461646BF
:1009F0001F462B46324629462046FFF76CFF3B46F2
:100A0000224629462046FFF766FF3B4632463946D6
:100A10002046FFF760FF3B46324629463046FFF747
:100A20005AFFBDE8F0812DE9F04706460F46904693
:100A3000002445460320A0EB480956E00008014089
:100A40000010014090012242000021428401214215
:100A500056000020200000203A1B91B2721B90B279
:100A6000FFF71DFF3A1B91B2721990B2FFF717FF03
:100A70007A1991B2321B90B2FFF711FF3A1B91B273
:100A8000721B90B2FFF70BFF7A1B91B2321B90B230
:100A9000FFF705FF3A1991B2721990B2FFF7FFFE06
:100AA0007A1B91B2321990B2FFF7F9FE7A1991B21E
:100AB000321990B2FFF7F3FE3A1991B2721B90B25D
:100AC000FFF7EDFE641CB9F1000F03DAA000801DF2
:100AD000814404E0601B80000A3081446D1E7A1955
:100AE00091B2321990B2FFF7DAFEAC42B4DDBDE844
:100AF000F0872DE9FE4F82468B4616461C46A6F12E
:100B00002000C6B204EBD4714910C1F1F001514587
:100B100003DBC4F1F001594501DABDE8FE8F04EBB7
:100B2000D4700AEB6000401E82B20BEB0400401E42
:100B300083B2594650460094FFF704FE102C01D0B2
:100B4000202C4ED12046E31704EB5373DB102146D3
:100B50004FEAE47C04EB5C7C4FEAEC0CA4EBCC0C9D
:100B6000BCF1000F02D04FF0010C01E04FF0000C7F
:100B70006344224604EBD27C4FEA6C0C03FB0CF37B
:100B800003F0FF09002529E0102C04D1FE4800EBFA
:100B90000610475D07E0202C04D1FC4800EBC6108E
:100BA000475D00E0B9E74FF0000812E007F0800071
:100BB00018B1F7480088029002E0F64800880290D9
:100BC0000298FFF7ACFD7806070E08F1010000F06F
:100BD000FF08B8F1080FE9DB681CC5B24D45D3DB4F
:100BE00080E00C2C45D12046E31704EB5373DB1057
:100BF00021464FEAE47C04EB5C7C4FEAEC0CA4EB6E
:100C0000CC0CBCF1000F02D04FF0010C01E04FF012
:100C1000000C6344224604EBD27C4FEA6C0C03FBCD
:100C20000CF303F0FF09002520E006EB4600DA494B
:100C300001EB8000475D4FF0000812E007F08000F4
:100C400018B1D3480088029002E0D2480088029090
:100C50000298FFF764FD7806070E08F1010000F026
:100C6000FF08B8F1060FE9DB681CC5B24D45DCDBB7
:100C700038E0182C36D12001C11700EB5171C1F3B7
:100C8000C70900252CE006EB4600C44901EB001023
:100C9000475D284605EBD0714910A5EB410111B91C
:100CA0000820019001E0042001904FF0000812E0BC
:100CB00007F0800018B1B6480088029002E0B548FD
:100CC000008802900298FFF72AFD7806070E08F1C7
:100CD000010000F0FF0801988045E9DB681CC5B2FF
:100CE0004D45D0DB00BF18E710B50246012000E0FB
:100CF00050430B00A1F10104E1B2F9D110BD2DE97F
:100D0000FF5F074691461E460E9D4FF0000A0024E5
:100D100035E0301B401EC1B20A20FFF7E5FFB9FBEA
:100D2000F0F00A21B0FBF1F201FB1208BAF1000F5A
:100D300014D1701EA04211DDB8F1000F0CD1AB46EA
:100D400005EBDB71491001FB047188B22B462022B0
:100D50000199FFF7CEFE10E04FF0010AAB4605EB1C
:100D6000DB71491001FB047188B208F13001CAB28D
:100D70002B460199FFF7BDFE00BF601CC4B2B44210
:100D8000C7DBBDE8FF9F2DE9FF4F81B006469146C6
:100D90001F46DDE90E4A00200090002544E0781B44
:100DA000401EC1B20A20FFF79FFFB9FBF0F00A21F5
:100DB000B0FBF1F201FB1208009820BB781EA8429C
:100DC00021DDB8F1000F1CD1BAF1000F0CD0A34601
:100DD00004EBDB71491001FB056188B22346302228
:100DE0000299FFF786FE0BE0A34604EBDB71491086
:100DF00001FB056188B2234620220299FFF779FEA4
:100E000010E001200090A34604EBDB71491001FBC8
:100E1000056188B208F13001CAB223460299FFF792
:100E200068FE00BF681CC5B2BD42B8DB05B0BDE8B6
:100E3000F08F2DE9F04704460D4690469946DDE9CE
:100E4000086704F0FF0A08EB04001FFA80F809EBBA
:100E500005001FFA80F914E0444502DB5446A81946
:100E600085B24D4500DB12E03A78334629462046EC
:100E7000FFF73FFE304606EBD07104EB61018CB208
:100E80007F1C38787E2802DC38782028E4DA00BF1E
:100E9000BDE8F0872DE9F04106460F4614461D4691
:100EA000DDF818803019F02802DC7819F02801DD0F
:100EB000BDE8F0817819401E83B23019401E82B21D
:100EC00039463046FFF73EFC01203549086004FBF7
:100ED00005F041004046FFF7E9FB00BFE8E738B501
:100EE00004460D462F485223F02229460090204602
:100EF000FFF7D0FF38BD10B5FFF7A0FB782000F05A
:100F000034FA1120FFF7F7FB782000F02EFA362094
:100F1000FFF7F1FB0020FFF7F8FB3A20FFF7EBFBB0
:100F20006520FFF7F2FBB220FFF7E5FB0C20FFF78F
:100F3000ECFB0C20FFF7E9FB0020FFF7E6FB33207A
:100F4000FFF7E3FB3320FFF7E0FBB720FFF7D3FB0E
:100F50007220FFF7DAFBBB20FFF7CDFB3D20FFF748
:100F6000D4FBC020FFF7C7FB2C20FFF7CEFBC2202D
:100F7000FFF7C1FB0120FFF7C8FBC320FFF7BBFB56
:100F80001920FFF7C2FB0FE024430008E45A0008D1
:100F90002000002022000020B03E00081449000874
:100FA00098012142648A0008C420FFF7A4FB202096
:100FB000FFF7ABFBC620FFF79EFB0F20FFF7A5FB5B
:100FC000D020FFF798FBA420FFF79FFBA120FFF79D
:100FD0009CFBE020FFF78FFBD020FFF796FB04205F
:100FE000FFF793FB0D20FFF790FB1120FFF78DFB20
:100FF0001320FFF78AFB2B20FFF787FB3F20FFF72B
:1010000084FB5420FFF781FB4C20FFF77EFB182068
:10101000FFF77BFB0D20FFF778FB0B20FFF775FB3D
:101020001F20FFF772FB2320FFF76FFBE120FFF784
:1010300062FBD020FFF769FB0420FFF766FB0C2062
:10104000FFF763FB1120FFF760FB1320FFF75DFB49
:101050002C20FFF75AFB3F20FFF757FB4420FFF7F8
:1010600054FB5120FFF751FB2F20FFF74EFB1F20B1
:10107000FFF74BFB1F20FFF748FB2020FFF745FB46
:101080002320FFF742FB2120FFF735FB2920FFF744
:1010900032FBEF231A4600210846FFF753FB4FF6B9
:1010A000FF70FFF782FB01200149086010BD0000BE
:1010B0009001214208B50121802000F05FFD4FF42E
:1010C0008070ADF8000000208DF8030069461048DC
:1010D00000F098FA00F022F808BD70B50024002551
:1010E00008E00D2000F05DF80444052000F03DF913
:1010F000681CC5B2142DF4DB1420B4FBF0F42146B7
:1011000004A002F0CDFA1A20B4FBF0F0C0B270BD1A
:10111000001C014025640D0A0000000000B587B0E6
:10112000012140F2044000F029FD4FF4004000F09E
:1011300089FC0120ADF8040000208DF8070001A90A
:101140002F4800F05FFA2F4801F074F90020029058
:1011500001208DF80C008DF80D004FF460200490F4
:101160000020059001208DF8180002A9264801F002
:1011700088F90121244801F0B0F9234801F0CFF9A2
:1011800000BF214801F0D0F90028FAD11E4801F033
:10119000D5F900BF1C4801F0D6F90028FAD107B0F4
:1011A00000BD10B50446072301222146164801F070
:1011B00000FA0121144801F0D0F900BF02211248C1
:1011C00001F03CFB0028F9D00F4801F059FA10BD9E
:1011D0002DE9F04107460C460025002608E0384678
:1011E000FFF7DFFF0544052000F0BFF8701CC6B212
:1011F000A642F4DBB5FBF4F080B2BDE8F08100005C
:101200000008014000240140002801407FB5044649
:101210000D460121084600F0BEFCADF80450002048
:10122000ADF80600ADF808404FF48070ADF80A0044
:1012300001A9800501F0FAFB01221146900701F097
:101240006CFF1C208DF8000001208DF803008DF844
:10125000010003208DF80200684600F0FCFE012129
:10126000880701F03FFF7FBD10B50121880702F01C
:1012700002FA18B10121880702F00EFA10BD7FB5FD
:1012800004460D460121C80200F078FCADF8045078
:101290000020ADF80600ADF80840ADF80A0001A93D
:1012A000124801F0C3FB01221146104801F035FF3E
:1012B00019208DF8000001208DF803008DF8010041
:1012C00003208DF80200684600F0C5FE01210748A2
:1012D00001F008FF7FBD10B50121044802F0CBF9F1
:1012E00018B10121014802F0D7F910BD002C0140CE
:1012F00010B56FF0040000F0F8FE2E4800682E498B
:10130000B0FBF1F02D4908700846007800EB400171
:10131000C1EBC0104FF6FF7101EAC00028490880F8
:1013200010BD0146254A12784A434FF0E0235A6126
:1013300000229A611A46126942F001021A6100BF46
:101340004FF0E022106900F001021AB100F480327F
:10135000002AF5D04FF0E022126922F001024FF08E
:10136000E0231A6100229A6170470146144A1288EC
:101370004A434FF0E0235A6100229A611A461269EB
:1013800042F001021A6100BF4FF0E022106900F044
:1013900001021AB100F48032002AF5D04FF0E022A9
:1013A000126922F001024FF0E0231A6100229A61D3
:1013B000704700000C00002000127A00240000207A
:1013C00026000020014600BF704700BF494A12882E
:1013D00002F04002002AF9D0C2B2464B1B1D1A800F
:1013E000704710B586B00446012144F2040000F0B5
:1013F000C5FB4FF40070ADF8140003208DF8160003
:1014000018208DF8170005A93B4800F0FBF84FF4B1
:101410008060ADF8140004208DF8170005A9364847
:1014200000F0F0F825208DF8000003208DF8010071
:101430008DF8020001208DF80300684600F00BFED5
:1014400001940020ADF80800ADF80A00ADF80C00DA
:10145000ADF810000C20ADF80E0001A9254800F0F1
:1014600034FC012240F22551224800F0C6FC012143
:10147000204800F0B6FC06B010BD10B540F2255172
:101480001C4800F09FFD10B31A4800F01BFDC4B2C9
:101490001A48008800F40040C8B91848008800F4D1
:1014A000804060B10A2C03D000201449088020E05D
:1014B0001248008840F400401049088019E00D2CC3
:1014C00006D10E48008840F480400C49088010E0A6
:1014D0000A480088C0F30D0009490C5407480088E9
:1014E000401C0649088008460088C72801DD002006
:1014F000088010BD00380140000801402C00002089
:10150000D60400200948804709480047FEE7FEE767
:10151000FEE7FEE7FEE7FEE7FEE7FEE7FEE7FEE7A3
:1015200004480549054A064B7047000013040008AB
:101530003101000800060020000C002000080020F7
:101540000008002010B50446CC48844208D101218F
:10155000042000F02DFB0021042000F029FB46E0D0
:10156000C748844208D10121082000F021FB002156
:10157000082000F01DFB3AE0C248844208D1012156
:10158000102000F015FB0021102000F011FB2EE0D0
:10159000BD48844208D10121202000F009FB002130
:1015A000202000F005FB22E0B848844208D1012148
:1015B000402000F0FDFA0021402000F0F9FA16E08A
:1015C000B348844208D10121802000F0F1FA0021C3
:1015D000802000F0EDFA0AE0AE48844207D10121F4
:1015E000801500F0E5FA0021A01500F0E1FA10BD29
:1015F00010B50121084600F0DBFA0021012000F0BF
:10160000D7FA10BD2DE9F041024600250026002042
:1016100000230024002791F803C00CF00F0591F877
:1016200003C00CF0100CBCF1000F03D091F802C005
:101630004CEA050591F800C0BCF1000F31D01468E8
:1016400000202BE04FF0010C0CFA00F3B1F800C0C1
:101650000CEA03069E4220D183004FF00F0C0CFAD7
:1016600003F7BC4305FA03FC4CEA040491F803C0F9
:10167000BCF1280F06D14FF0010C0CFA00FCC2F8A7
:1016800014C00AE091F803C0BCF1480F05D14FF037
:10169000010C0CFA00FCC2F810C0401C0828D1D381
:1016A0001460B1F800C0BCF1FF0F34DD54680020B5
:1016B0002EE000F1080C4FF0010808FA0CF3B1F825
:1016C00000C00CEA03069E4221D183004FF00F0CAC
:1016D0000CFA03F7BC4305FA03FC4CEA040491F846
:1016E00003C0BCF1280F05D100F1080C08FA0CF872
:1016F000C2F8148091F803C0BCF1480F07D100F183
:10170000080C4FF0010808FA0CF8C2F81080401CD1
:101710000828CED35460BDE8F0814FF6FF710180F8
:10172000022181700421C170704702460020936835
:101730000B400BB1012000E0002070470146886893
:1017400080B2704702460020D3680B400BB10120E5
:1017500000E0002070470146C86880B27047016110
:101760007047416170470AB1016100E04161704713
:10177000C16070474FF480320A43826181618261A7
:1017800082698269704702460020434B18684FF611
:101790008073184040EA021008433F4B18607047BE
:1017A0003E49C8617047F0B50A4600230024002175
:1017B000002500F00046B6F1004F02D1364EF16927
:1017C00001E0354E7168C0F3034583B200F4401662
:1017D000B6F5401F08D121F070612F4E766826F0D3
:1017E00070662D4F7E6012E000F48016B6F5801F03
:1017F00006D1032606FA05F4A14341F0706106E024
:10180000460D360103FA06F6B14341F0706122B18C
:10181000460D360103FA06F6314300F00046B6F1F4
:10182000004F02D11C4EF16101E01B4E7160F0BD12
:1018300030B500228B071C0F0F2303FA04F2164B5E
:1018400008338C1053F824309343134C08348D1014
:1018500044F8253023468C1053F824308C07240F8D
:1018600000FA04F423430C4C08348D1044F825305E
:1018700030BD0A49DC3108607047000000080140B3
:10188000000C01400010014000140140001801400C
:10189000001C0140002001400000014000002042E7
:1018A000DF48006840F00100DD49086008464068F4
:1018B000DC490840DA49486008460068DA490840CF
:1018C000D74908600846006820F480200860084670
:1018D000406820F4FE0048604FF41F0088607047A5
:1018E000CF49096821F48031CD4A11601146096859
:1018F00021F480211160B0F5803F03D0B0F5802F36
:101900000ED106E0C649096841F48031C44A11602D
:1019100007E0C349096841F4A021C14A116000E011
:1019200000BF00BF704710B5014600220023002011
:101930004A11012A02D1BA4C236806E0022A02D1D8
:10194000B74C236A01E0B64C636A01F01F02012420
:1019500094401C400CB1012000E0002010BD38B5BF
:10196000002000900024002500BF3120FFF7DBFF9E
:1019700005460098401C00900098B0F5A06F01D07B
:10198000002DF2D03120FFF7CEFF08B1012400E096
:101990000024204638BD01460020A14A106820F0EE
:1019A000F80040EAC10010607047A0490860704725
:1019B000024600209A4B586820F47C1042EA01034A
:1019C0001843974B5860704798490866704701461E
:1019D0000020934A506820F003000843506070478D
:1019E0008F48406800F00C007047014600208C4A88
:1019F000506820F0F0000843506070470146002016
:101A0000874A506820F4E060084350607047014600
:101A10000020834A506820F4605040EAC1005060C2
:101A2000704729B17E4A527A02437D4B5A7204E0D4
:101A30007B4A527A82437A4B5A7270477B49D8313B
:101A40000860704701460020754A506820F4404005
:101A50000843506070470021714A20321170704A6B
:101A600082F82010012802D004280AD104E00121C4
:101A70006B4A2032117005E00521694A203211704D
:101A800000E000BF00BF70476949086070476449C3
:101A9000096A0143624A1162704765494439086026
:101AA000704730B500210022002400235C4D6D6892
:101AB00005F00C0121B1042905D0082923D105E046
:101AC0005C4D056022E05B4D05601FE0544D6D6884
:101AD00005F47012524D6D6805F48034022505EB53
:101AE00092421CB9544D554305600BE04C4D6D6856
:101AF00005F400351DB1504D5543056002E04D4DD4
:101B00005543056002E04B4D056000BF00BF444DEA
:101B10006D6805F0F0010909484D6B5C0568DD4012
:101B200045603F4D6D6805F4E061090A434D6B5C0B
:101B30004568DD4085603A4D6D6805F46051C90A1D
:101B40003E4D6B5C4568DD40C560354D6D6805F404
:101B50004041890B3A4D6B5CC568B5FBF3F50561F7
:101B600030BD29B12E4A526902432D4B5A6104E01F
:101B70002B4A526982432A4B5A61704729B1284A3D
:101B800092690243264B9A6104E0254A9269824396
:101B9000234B9A61704729B1214AD2690243204BF5
:101BA000DA6104E01E4AD26982431D4BDA61704754
:101BB00029B11B4AD2680243194BDA6004E0184A83
:101BC000D2688243164BDA60704729B1144A126911
:101BD0000243134B1A6104E0114A12698243104B0D
:101BE0001A61704712494039086070470F49C8644C
:101BF00070470B49C87170470948406A40F08070CF
:101C000007494862704701460020054A92680A4029
:101C10000AB1012000E00020704701498872704736
:101C2000001002400000FFF8FFFFF6FE00004242F5
:101C30008004424200127A0000093D002E0000207C
:101C40003E00002010B50446FB48844209D1012122
:101C50008803FFF7ADFF00214FF48040FFF7A8FF96
:101C600032E0F648844209D101214804FFF7ADFF74
:101C700000214FF40030FFF7A8FF25E0F048844230
:101C800009D101218804FFF7A0FF00214FF4802033
:101C9000FFF79BFF18E0EB48844209D10121C804FB
:101CA000FFF793FF00214FF40020FFF78EFF0BE0BA
:101CB000E548844208D101210805FFF786FF00218D
:101CC0004FF48010FFF781FF10BD2DE9F04786B07B
:101CD00005460E460024A24600BFA1460027B08953
:101CE00000B100BF2F462C8A4CF6FF700440F088EC
:101CF00004432C82AC894EF6F3100440B08831893D
:101D00000843718908430443AC81AC8A4FF6FF4015
:101D10000440B0890443AC8201A8FFF7C2FEC64864
:101D2000874202D1DDF810A001E0DDF80CA0A889FF
:101D300000F4004040B10AEBCA0000EB0A10316821
:101D40004900B0FBF1F807E00AEBCA0000EB0A100B
:101D500031688900B0FBF1F86420B8FBF0F00401B1
:101D60002009642101FB1089A88900F4004040B1DA
:101D7000322000EBC900B0FBF1F000F00700044393
:101D800008E0322000EB09106421B0FBF1F000F014
:101D90000F0004432C8106B0BDE8F0874FF41651C4
:101DA000016000218180C18001810C2141810021DD
:101DB0008181704710B502460020108A4FF2FF0360
:101DC00018400B884C8823438C882343CC882343BA
:101DD0001843108210BD0021018041808180C180A4
:101DE000704721B1828942F40052828104E08289E5
:101DF0004DF6FF731A4082817047F0B50346002408
:101E000000260025002040F66A17B94200D100BF25
:101E10001846C1F3421401F01F06012707FA06F520
:101E2000012C01D10C3004E0022C01D1103000E073
:101E300014301AB107682F43076002E00768AF4308
:101E40000760F0BD1AB1838A0B43838202E0838A64
:101E50008B4383827047028A4FF6F0731A400282E6
:101E6000028A0A430282704782894FF2FF731A4046
:101E7000828182890A438281704721B1828942F03E
:101E80000202828104E082894FF6FD731A4082814A
:101E90007047028A4FF6DF731A400282028A0A43B1
:101EA0000282704721B1028A42F48042028204E039
:101EB000028A4BF6FF731A4002827047C1F3080290
:101EC0008280704701468888C0F308007047818986
:101ED00041F0010181817047028BD2B20283028BF3
:101EE00042EA012202837047028B02F47F4202839E
:101EF000028B0A430283704721B1828A42F020029A
:101F0000828204E0828A4FF6DF731A408282704731
:101F100021B1828A42F01002828204E0828A4FF666
:101F2000EF731A408282704721B1828A42F0080220
:101F3000828204E0828A4FF6F7731A4082827047E9
:101F400021B1828942F40042828103E08289C2F396
:101F50000E028281704721B1828A42F4006282823D
:101F600004E0828A4FF2FF731A4082827047828AAD
:101F70004FF6FB731A408282828A0A43828270473C
:101F800021B1828A42F00202828204E0828A4FF604
:101F9000FD731A408282704702460020B1F5007F2F
:101FA00000D100BF13880B400BB1012000E00020DE
:101FB000704701F40072B2F5007F00D100BFCA4340
:101FC0000280704770B502460024002300250020DF
:101FD00040F66A16B14200D100BFC1F3421501F0CC
:101FE0001F03012606FA03F3012D02D1968933401F
:101FF00006E0022D02D1168A334001E0968A334072
:102000000C12012606FA04F41688344013B10CB100
:10201000012000E0002070BD10B50022002340F632
:102020006A14A14200D100BF0A1201249440A3B255
:10203000DC43048010BD0000003801400044004033
:1020400000480040004C004000500040314901432E
:10205000314A1160704770B5002100230F22C47807
:1020600004B32D4C246804F4E064C4F5E064210A50
:10207000C1F10403CA40447804FA03F1847814409F
:1020800021430901254C0678A155047804F01F0569
:102090000124AC4005786D11AD0005F1E025C5F8CF
:1020A000004109E0047804F01F050124AC401C4DF8
:1020B0000678761145F8264070BD1A4A0A40024358
:1020C000154B1B1F1A60704739B1134A121D126855
:1020D0000243114B1B1D1A6006E00F4A121D1268C5
:1020E00082430D4B1B1D1A607047042808D14FF026
:1020F000E021096941F004014FF0E022116107E09D
:102100004FF0E021096921F004014FF0E022116154
:10211000704700000000FA050CED00E000E400E06C
:1021200080E100E080FFFF1F10B50446BE488442F6
:1021300008D101218014FFF73BFD0021A014FFF717
:1021400037FD16E0B948844208D101210014FFF799
:102150003CFD00212014FFF738FD0AE0B44884421A
:1021600007D10121C013FFF730FD0021E013FFF775
:102170002CFD10BD10B50022028802F441520B88DC
:102180004C8823438C882343CC8823430C892343E6
:102190004C8923438C892343CC8923431A430280EF
:1021A000838B4FF2FF74234083830B8A038210BD1D
:1021B0002DE9F04F85B005460C464FF00009022787
:1021C0004FF000084FF0010B0026B246A88B4FF2EB
:1021D00040010840A88302202884B5F81C90A0681C
:1021E000022801D100BF38E0A08810B94FF0010BE0
:1021F00001E04FF0020B8D48854200D100E000BFA6
:102200006846FFF74EFCDDF800A0E088B0F5007FDF
:102210000AD14FEA1A2000EB80004000A168B0FB11
:10222000F1F0401D86B20BE04FEA4B10BAFBF0F024
:1022300000EB80004000A168B0FBF1F0401D86B2C9
:102240000A20B6FBF0F606F00108A6EB0800C0F382
:102250004F074FF6FF7000EA0828022F01DBFF2F1F
:1022600002DD02274FF00008E08840EA080038430A
:102270002884A088A18908436188084321880843ED
:1022800040F4006040EA0909A5F81C9005B0BDE8DB
:10229000F08F0021018041808180C18001814181D6
:1022A0008181C18107210182704700210180418025
:1022B0008180C1800221816000218181704721B12C
:1022C000028842F04002028004E002884FF6BF73A9
:1022D0001A400280704721B1828B42F4806282836F
:1022E00004E0828B4FF6FF331A408283704730B58B
:1022F000002400230C110125A540ABB21AB185883A
:102300001D43858002E085889D43858030BD1AB1DC
:1023100083880B43838002E083888B4383807047EC
:10232000818170470146888970474FF6FF6291426C
:1023300004D0028842F48072028004E002884FF6E2
:10234000FF631A400280704721B1828842F0040284
:10235000828004E082884FF6FB731A4082807047C7
:1023600002884FF2FF731A40028002880A430280FB
:102370007047018841F480510180704721B1028883
:1023800042F40052028004E002884DF6FF731A40C6
:102390000280704702460020012901D0108B00E026
:1023A000908A70470146088A7047B1F5804F04D182
:1023B000028842F48042028004E002884BF6FF73F8
:1023C0001A40028070470246002013890B400BB16F
:1023D000012000E000207047CA4302817047F0B539
:1023E0000246002000240023002501F00F070126EB
:1023F000BE40B4B20B1101269E40B3B2968806EAE5
:1024000003051689264016B10DB1012000E0002019
:10241000F0BD10B5002201F00F040123A3409AB2D1
:10242000D343038110BD000000300140003800405C
:10243000003C004010B50446FA48844208D101210E
:102440004015FFF7B5FB00216015FFF7B1FB17E062
:10245000F548844208D101210015FFF7A9FB0021AE
:102460002015FFF7A5FB0BE0F048844208D10121BD
:10247000C803FFF79DFB00214FF40040FFF798FBD6
:1024800010BD30B50246002000235068E84C2040C3
:102490000D790C6844EA0524204350609068E54CAF
:1024A0002040D1E902542C434D7944EA45042043AD
:1024B0009060D06A20F470000C7C641EE4B2234368
:1024C00040EA0350D06230BD0021016001714171CA
:1024D0008160C16001210174704721B1826842F0BE
:1024E0000102826003E0826822F00102826070478C
:1024F00021B1826842F48072826003E0826822F433
:1025000080728260704710B50023CBB21AB1446864
:102510001C43446002E044689C43446010BD8168F1
:1025200041F0080181607047014600208A6802F08E
:1025300008020AB1012000E000207047816841F0E4
:10254000040181607047014600208A6802F004029D
:102550000AB1012000E00020704721B1826842F4F6
:10256000A002826003E0826822F4A00282607047C9
:10257000014600208A6802F480020AB1012000E0CE
:102580000020704710B50A4600210023416821F45D
:102590006041531E41EA4331416010BD21B14268A0
:1025A00042F40062426003E0426822F4006242604A
:1025B0007047F0B504460D4600200021092D11DDBD
:1025C000E068A5F10A0606EB4607072606FA07F1BA
:1025D0008843A5F10A0606EB460603FA06F108430E
:1025E000E0600CE0206905EB4507072606FA07F1D5
:1025F000884305EB450603FA06F108432061072AE4
:102600000FDA606B561E06EB86071F2606FA07F1E7
:102610008843561E06EB860605FA06F108436063FA
:1026200022E00D2A0FDA206BD61F06EB86071F2645
:1026300006FA07F18843D61F06EB860605FA06F16F
:102640000843206310E0E06AA2F10D0606EB86075E
:102650001F2606FA07F18843A2F10D0606EB86064F
:1026600005FA06F10843E062F0BD21B1826842F448
:102670008012826003E0826822F4801282607047D8
:102680000146C86C80B2704766484C30006870479D
:1026900021B1426842F48062426003E0426822F461
:1026A00080624260704721B1426842F480524260C9
:1026B00003E0426822F48052426070470A460021DB
:1026C000816821F4E04111438160704721B1826843
:1026D00042F40042826003E0826822F40042826099
:1026E000704721B1826842F40212826003E082687E
:1026F00022F4021282607047014600208A6802F4C8
:1027000000120AB1012000E000207047F0B5044635
:102710001546002000220026092911DDE068A1F1FC
:102720000A0707EB470C072707FA0CF29043A1F1C1
:102730000A0707EB470703FA07F21043E0600CE0D3
:10274000206901EB410C072707FA0CF2904301EBDB
:10275000410703FA07F210432061A06BC0F3015652
:10276000EF1C06F1010CA7EB0C0707EB870C1F27EA
:1027700007FA0CF29043EF1C06F1010CA7EB0C07D3
:1027800007EB870701FA07F21043A063F0BD10B50D
:102790000A4600210023816B21F44011531E41EAB7
:1027A0000351816310BD08B5002300930090009B86
:1027B0000B440093009B1A6008BD08B50246002038
:1027C0000090009201F12800009B184400900098AE
:1027D000006880B208BD0A4600214168164B1940C6
:1027E0001143416070474162826270470A4600218E
:1027F000416821F01F0111434160704740B1094910
:102800000831096841F40001064A0832116007E006
:1028100004490831096821F40001024A08321160B4
:10282000704700000024014000280140003C0140A6
:10283000FFFEF0FFFDF7F1FFFFFD3FFF0246002026
:1028400013680B400BB1012000E000207047CA4321
:102850000260704770B502460020002300240B126E
:102860005568CEB205EA060415681D4015B10CB1D5
:10287000012000E0002070BD00220A12D343036053
:102880007047000010B50446FE48844208D101217B
:10289000C014FFF78DF90021E014FFF789F9C4E0B7
:1028A000B4F1804F08D101210846FFF78EF90021CD
:1028B0000120FFF78AF9B8E0F348844208D10121EA
:1028C0000220FFF782F900210220FFF77EF9ACE039
:1028D000EE48844208D101210420FFF776F9002157
:1028E0000420FFF772F9A0E0E948844208D10121F1
:1028F0000820FFF76AF900210820FFF766F994E045
:10290000E448844208D101211020FFF75EF900213C
:102910001020FFF75AF988E0DF48844208D10121EE
:102920002020FFF752F900212020FFF74EF97CE02C
:10293000DA48844208D101214014FFF739F9002117
:102940006014FFF735F970E0D548844209D10121C0
:10295000C804FFF72DF900214FF40020FFF728F9F4
:1029600063E0D048844209D101210805FFF720F92E
:1029700000214FF48010FFF71BF956E0CA4884424B
:1029800009D101214805FFF713F900214FF4001088
:10299000FFF70EF949E0C548844208D101214020E3
:1029A000FFF713F900214020FFF70FF93DE0C04881
:1029B000844208D101218020FFF707F900218020FF
:1029C000FFF703F931E0BB48844208D101218015AB
:1029D000FFF7FBF80021A015FFF7F7F825E0B64850
:1029E000844209D101210804FFF7E2F800214FF4E5
:1029F0008030FFF7DDF818E0B048844209D10121AA
:102A00004804FFF7D5F800214FF40030FFF7D0F865
:102A10000BE0AB48844208D101218804FFF7C8F8D5
:102A200000214FF48020FFF7C3F810BD0022028878
:102A3000944B98420ED0994B98420BD0B0F1804FF6
:102A400008D0914B984205D0904B984202D0904BC1
:102A5000984204D14FF68F731A404B881A438D4B1E
:102A6000984207D08C4B984204D04FF6FF431A404F
:102A7000CB881A4302808B8883850B880385814B22
:102A800098420BD0854B984208D08B4B984205D08A
:102A90008A4B984202D08A4B984201D10B7A038626
:102AA00001238382704770B5002400220023058C27
:102AB0004FF6FE7635400584028C8388048B4FF6F2
:102AC0008F752C40B51E2C400D882C43751E2A4056
:102AD0000D892A434D882A436A4DA8420BD06F4D79
:102AE000A84208D0744DA84205D0744DA84202D027
:102AF000734DA84213D14FF6F7752A404D892A43EA
:102B00004FF6FB752A408D882A434FF6FF652B4010
:102B10004FF6FF552B408D892B43CD892B43838066
:102B20000483CD888586028470BD70B500240022A0
:102B30000023058C4FF6EF7635400584028C8388A0
:102B4000048B48F6FF752C404FF6FF452C400D884E
:102B50004FF6FF7606EA05252C434FF6DF752A402F
:102B60000D8906EA05152A434D8806EA05152A430C
:102B7000444DA84202D0494DA8421DD14FF67F7561
:102B80002A404D894FF6FF7606EA05152A434FF68F
:102B9000BF752A408D8806EA05152A434FF6FF3592
:102BA0002B404FF2FF752B408D8906EA85052B439C
:102BB000CD8906EA85052B4383800483CD8805876C
:102BC000028470BD70B5002400220023058C4FF6EE
:102BD000FF6635400584028C8388848B4FF68F75A1
:102BE0002C404FF6FC752C400D882C434FF6FF55BA
:102BF0002A400D894FF6FF7606EA05252A434D88BF
:102C000006EA05252A431F4DA84202D0234DA842BB
:102C10001DD14FF2FF752A404D894FF6FF7606EA27
:102C200005252A434FF6FF352A408D8806EA0525FB
:102C30002A434EF6FF752B404DF6FF752B408D89CC
:102C400006EA05152B43CD8906EA05152B4383803B
:102C50008483CD888587028470BD70B500220023EF
:102C60000024058C4EF6FF7635400584038C84885D
:102C7000828B48F6FF752A404FF6FF452A400D88A3
:102C800020E00000002C014000040040000800404B
:102C9000000C0040001000400014004000340140CF
:102CA000004C014000500140005401400018004019
:102CB000001C004000200040004001400044014052
:102CC000004801404FF6FF7606EA05252A434DF6F7
:102CD000FF752B400D8906EA05352B434D8806EA22
:102CE00005352B43FA4DA84202D0FA4DA84208D12F
:102CF0004BF6FF752C408D894FF6FF7606EA851559
:102D00002C4384808283CD88A0F84050038470BD1A
:102D1000828B4FF2FF331A408283828B4FF6FF7310
:102D200003EA01231A4382837047F0B50C46154627
:102D3000002200210026078C4EF6FF7C07EA0C07D4
:102D40000784828B018C4FF6FF7707EA043640F642
:102D5000FF473A404FF6FF7707EA05273A434FF619
:102D6000FF7707EA03373A43D94FB8420ED0D94F1D
:102D7000B8420BD0B0F1804F08D0D74FB84205D041
:102D8000D64FB84202D0D64FB84206D14DF6FF77A3
:102D9000394046F48057394305E047F6FF5739403C
:102DA00044F48057394382830184F0BD828B4FF60F
:102DB000F3731A408283828B0A4382837047F0B593
:102DC0000C461546002200210026078C4FF6FF6CAA
:102DD00007EA0C070784828B018C4FF6FF7707EA1E
:102DE00004264FF60C773A404FF6FF7707EA0317B1
:102DF0002F433A43B64FB8420ED0B64FB8420BD02D
:102E0000B0F1804F08D0B44FB84205D0B34FB842AC
:102E100002D0B34FB84206D14FF6FF57394046F4BF
:102E20008077394305E04FF2FF57394044F480770B
:102E3000394382830184F0BD028B4FF2FF331A4085
:102E40000283028B4FF6FF7303EA01231A430283C6
:102E50007047F0B50C461546002200210026078C6D
:102E60004FF6EF7C07EA0C070784028B018C4FF6C4
:102E7000FF7707EA041640F6FF473A404FF6FF7720
:102E800007EA03373A434FF6FF7707EA05273A4345
:102E90008F4FB8420ED08F4FB8420BD0B0F1804F59
:102EA00008D08D4FB84205D08C4FB84202D08C4F1D
:102EB000B84206D14FF6DF77394046F01007394364
:102EC00005E04FF65F77394044F01007394302833D
:102ED0000184F0BD028B4FF6F3731A400283028B1C
:102EE0000A4302837047F0B50C46154600220021C4
:102EF000068C4FF6FE773E400684028B018C4FF61F
:102F00000C7632407E1C06EA03162E433243704E86
:102F1000B0420ED06F4EB0420BD0B0F1804F08D00F
:102F20006D4EB04205D06D4EB04202D06C4EB042F4
:102F300006D14FF6FD76314044F00106314305E0FD
:102F40004FF6F576314044F00106314302830184A7
:102F5000F0BD70B505460C465D4885420ED05D4813
:102F600085420BD0B5F1804F08D05B48854205D033
:102F70005A48854202D05A48854200D100E000BF3D
:102F8000208850B92389A28861882846FFF7ABFFC3
:102F9000E1882846FFF79EFF25E0208804280AD113
:102FA0002389A28861882846FFF753FFE1882846D5
:102FB000FFF742FF17E0208808280AD12389A2885A
:102FC00061882846FFF7FBFEE1882846FFF7EEFE02
:102FD00009E02389A28861882846FFF7A6FEE188D8
:102FE0002846FFF795FE70BD2DE9F04105460C46D9
:102FF00000260127608808B9022600E00026A08884
:10300000012801D1022700E001272088A0B92389E7
:10301000A28861882846FFF766FFE1882846FFF707
:1030200059FF23893A4631462846FFF712FFE188C7
:103030002846FFF701FF13E02389A288618828460C
:10304000FFF707FFE1882846FFF7F6FE23893A4697
:1030500031462846FFF747FFE1882846FFF73AFF49
:10306000BDE8F0810A884B881A438B881A43CB88C5
:103070001A430B891A434B891A438B891A43A0F8C8
:10308000442070474FF6FF71818000210180C1808C
:103090004180017270470021018041808180C180A0
:1030A000018141818181C18170470021018041807E
:1030B000012181800021C1800181704700210180B0
:1030C00041808180C1800181418181817047000000
:1030D000002C014000340140000400400008004082
:1030E000000C004021B1028842F00102028004E09D
:1030F00002884FF6FE731A400280704731B1B0F873
:10310000442042F40042A0F8442005E0B0F84420F6
:10311000C2F30E02A0F8442070471AB183890B4312
:10312000838102E083898B4383817047818270476A
:1031300041EA0203A0F8483070471AB183890B4373
:10314000838102E083898B438381704701894FF635
:10315000F8721140018170470A46002101894FF63B
:103160008F73194011430181704730B504460D46F5
:1031700029462046FFF7F0FF208940F00700208114
:1031800030BD2DE9F04104460D4616461F46602D20
:1031900006D13B46012231462046FFF75AFE05E0A4
:1031A0003B46012231462046FFF79DFE2946204638
:1031B000FFF7D2FF208940F007002081BDE8F081B1
:1031C00030B50C4600210189C9B24FF6FF7505EAFA
:1031D0000325154325432943018130BD2DE9F041E5
:1031E00005460E4617469846002443463A46314661
:1031F0002846FFF7E5FF2C894FF6F870044044F0AD
:1032000007044FF68F70044044F070042C81BDE831
:10321000F081F0B504460D4616461F463B46324641
:1032200029462046FFF7CCFF208940F480402081CA
:10323000F0BD0185828270470A46002101884FF661
:103240008F731940114301807047F0B50C46154645
:103250001E460021002200230189028B038C4FF6B9
:10326000F877394021434FF6FC473A4040F20117C6
:103270003A434FF6DD773B404FF6FF7707EA0617F4
:103280002F433B43018102830384F0BD0A460021A2
:10329000018B4FF68F7319401143018370470A4623
:1032A0000021018B48F6FF7319404FF6FF7303EAC4
:1032B00002231943018370470A460021818B4FF690
:1032C0008F7319401143818370470A460021818B17
:1032D00048F6FF7319404FF6FF7303EA02231943C0
:1032E0008183704721B1028842F08002028004E0AD
:1032F00002884FF67F731A400280704721B182889E
:1033000042F00402828004E082884FF6FB731A4088
:103310008280704721B1828842F00802828004E0F6
:1033200082884FF6F7731A408280704721B18288F5
:1033300042F00102828004E082884FF6FE731A4058
:10334000828070470A460021018B4FF6F7731940BF
:103350001143018370470A460021018B4FF2FF732E
:1033600019404FF6FF7303EA0223194301837047A4
:103370000A460021818B4FF6F77319401143818370
:1033800070470A460021818B4FF2FF7319404FF6B8
:10339000FF7303EA02231943818370470A46002121
:1033A000018B4FF6FB7319401143018370470A46A6
:1033B0000021018B4FF6FF3319404FF6FF7303EAEC
:1033C00002231943018370470A460021818B4FF67F
:1033D000FB7319401143818370470A460021818B9A
:1033E0004FF6FF3319404FF6FF7303EA02231943E8
:1033F000818370470A460021018B4FF67F73194085
:103400001143018370470A460021018BC1F30E016D
:103410004FF6FF7303EA02231943018370470A46FC
:103420000021818B4FF67F731940114381837047D0
:103430000A460021818BC1F30E014FF6FF7303EAA8
:1034400002231943818370470A460021018C4FF6FD
:10345000FD7319401143018470470A460021018C15
:103460004FF6F77319401143018470470A46002153
:10347000018C4FF6DF7319404FF6FF7303EA021316
:103480001943018470470A460021018C4FF67F736F
:1034900019404FF6FF7303EA021319430184704782
:1034A0000A460021018C4FF6FF5319404FF6FF7377
:1034B00003EA02231943018470470A460021018C64
:1034C0004FF2FF7319404FF6FF7303EA02231943CB
:1034D000018470470A460021018C4DF6FF731940A4
:1034E0004FF6FF7303EA023319430184704730B586
:1034F000002301248C40A3B2048C9C430484048CDC
:1035000002FA01F5ADB22C43048430BD30B500237E
:1035100004248C40A3B2048C9C430484048C02FADF
:1035200001F5ADB22C43048430BD70B503460020D4
:1035300000241846183001258D40ACB21D8CA543DF
:103540001D8409B1082909D100EB6100056825F047
:10355000700505600568154305600EE00D1FC5F395
:103560004E052844056825F4E045056005684FF6DA
:10357000FF7606EA02263543056070BD21B1028858
:1035800042F00202028004E002884FF6FD731A4006
:103590000280704721B1028842F00402028004E0F8
:1035A00002884FF6FB731A400280704721B182886F
:1035B00042F08002828004E082884FF67F731A40D6
:1035C0008280704702884FF6F7731A4002800288A3
:1035D0000A430280704782884FF68F731A408280B8
:1035E00082880A438280704702894FF6F8731A4036
:1035F000028102890A430281704702894FF67F7374
:103600001A40028102890A4302817047818470470F
:103610008185704781867047018770478187704731
:10362000A0F84010704702884FF6FF431A4002800E
:1036300002880A43028070470146888E704701461F
:10364000088F70470146888F70470146B1F84000E7
:1036500070470146888C70470146088D70470246C6
:103660000020138A0B400BB1012000E000207047BE
:10367000CA430282704730B502460020002300246E
:10368000158A05EA0103958905EA010413B10CB115
:10369000012000E0002030BDCA430282704770471D
:1036A0000FB4044910B503AA029800F0D3F810BC77
:1036B0005DF814FB280000202DE9F0410E46044679
:1036C000002020622046E168884730B3252805D0D5
:1036D000D4E901219047206A401CF2E7E1682046C6
:1036E00000278847050018D0A5F14100192802D805
:1036F00020354FF400673246294620462760FCF704
:1037000051FD40B1012804D0F61D26F00706083609
:10371000D8E7361DD6E72846DAE7206ABDE8F0810B
:103720002DE9F0410646002410687529314616A59A
:1037300010D0AFF30080002802DA404213A507E062
:1037400031688A0701D512A502E0490704D511A501
:10375000012401E0AFF3008000210A2206F12407D2
:1037600009E0B0FBF2FCB0FBF2F302FB1C003030CE
:1037700078541846491C0028F3D123462A4630467F
:10378000BDE8F04100F00CB8000000002D00000082
:103790002B00000020000000704770477047704702
:1037A0002DE9F0470D4699469246044600F124085B
:1037B0000168880604D5E06921F01001216000E06D
:1037C0000120A84201DD471B00E00027A1697A190A
:1037D00002EB0900081AA0612078C00602D4204636
:1037E000AFF30080002608E0D4E901211AF80600B2
:1037F0009047206A401C761C20624E45F4DB2078FE
:10380000C0060AD52046AFF3008006E0D4E90121C6
:1038100030209047206A401C2062381EA7F1010723
:10382000F4DC07E0D4E9012118F805009047206A8C
:10383000401C2062281EA5F10105F3DC2046AFF3F1
:1038400000802078000602D50220BDE8F087012024
:10385000FBE70000074B70B50D467B4400F011F804
:103860000446284600F020F810B14FF0FF3070BD3C
:10387000204670BD6DDBFFFF01694A1C02610878BC
:10388000704700B58FB0CDE90131002105910549A0
:103890007944CDE9031011466846FFF70DFF0FB0DC
:1038A00000BD0000E5FFFFFF007B00F080007047D7
:1038B000754600F029F8AE4605006946534620F0EB
:1038C0000700854618B020B5FDF72AFEBDE8204068
:1038D0004FF000064FF000074FF000084FF0000BCC
:1038E00021F00701AC46ACE8C009ACE8C009ACE87F
:1038F000C009ACE8C0098D4670470446AFF30080AC
:103900002046FCF761FC000000487047A00500203D
:1039100010B591EA030F48BF83F0004300F1E68140
:10392000841A71EB030C05D2121943EB0C03001B34
:1039300061EB0C01DFF824E14FEA1154A4EB135CB6
:103940001EEA430F18BF9EEA445F73D023EA0E03BA
:10395000DCF1200E21EA045143F4801332D322FA21
:103960000CFE10EB0E0023FA0CFE41EB0E01CCF125
:10397000200E03FA0EFE10EB0E0051F10001B1F51E
:10398000801FCCF1200E32D201EB045112FA0EF25C
:10399000BDE8104058BF7047401C38BF5FEA420284
:1039A00018BF7047002814BF20F0010041F100014A
:1039B0004FEA410313F5001F38BF7047A1F1C04122
:1039C00000F086B9012A43EB0302ACF1200CDCF1D4
:1039D0001F0E32BF4FF0000E23FA0CF310EB030062
:1039E00041EB0451B4EB115FD0D0A1EB045101F5D0
:1039F000801149085FEA300001EB04510ED350F109
:103A0000000038BF12FA0EFE08D1BDE81040C9E729
:103A1000401C38BF5FEA4202CAD1C3E7BDE810408C
:103A20004FEA410313F5001F38BF7047A1F1C041B1
:103A300000F04EB99EEA445F08D011EA5E0FBDE87F
:103A4000104004BF01F0004100207047BDE8104065
:103A500070B500F0EFF800BF64FBBE3E0000E0FF71
:103A60004FEA1153A3F58063D3F11E03A8BFD3F12E
:103A7000200C08DB4FF0004242EAC12252EA5052C9
:103A800032FA03F0704709420BD4102BC4BF002058
:103A9000704703F5787CBCF1FF3F05D04FF0FF3055
:103AA00070474FF00000704770B500F0C3F800BFDA
:103AB0004992248000207047F0E7B0FA80F310FAB2
:103AC00003F10AD0C3F11D0303F580634FEA4150AF
:103AD0004FEA035202EBD12170474FF000007047CC
:103AE000DFF848C170B51CEA111E1EBF1CEA131591
:103AF0009EEA0C0F95EA0C0F00F06F8081EA030438
:103B000023EA4C134EEAD47E21EA4C1141F4801191
:103B100043F48013AE44A1FB024CA0FB0365AEF15D
:103B20007F7E361955EB0C05A1FB034C4CF10003CD
:103B3000A0FB021C16EB0C06654153F10003094281
:103B400018BF46F0010613F4007F0BD14FEA033192
:103B50004FEA0530340341EA155140EA16506FF040
:103B600003020AE04FEAC3214FEAC520F40241EA0A
:103B7000555140EA56506FF0020202EB2E4201EB23
:103B8000025585EACE710AD05FEA440C18BF24F0D2
:103B9000004450F1000041F1000120EAD47040F2ED
:103BA000FE7C624500D270BDA84214BF4FF0804435
:103BB0004FF04044002E08BF0024BEF1806FA8BF24
:103BC000A1F1C041BDE8704080F282804FF000005A
:103BD00001F1C04101F0004170479EEA0C0F0CEA70
:103BE000131518BF95EA0C0F06D04FF0000081EABC
:103BF000030E0EF0004170BD00F01CF88900013E7C
:103C000000F007B800F009B84FEA430C5FEA5C5CCB
:103C100008D081EA030100F05BB84FEA410C5FEA8B
:103C20005C5CF6D14FF00000014970470000FF07CF
:103C30000000F87F0EF1020E2EF0030E5EF8046B0A
:103C4000364205D4012A43EB030515F5001F12D8AF
:103C5000012841EB010C1CF5001F0CD80ED14FEAD6
:103C6000D17C15F5001F0CEB4C0C0CF1020C08BFBD
:103C70004CEBD37C04E04FF0080C01E04FEAD37C1E
:103C80000CEB4C0526FA05F606F00706B6F1040C17
:103C900006D20EEB860CBDE870404CF0010C60477C
:103CA000DFE80CF0090B02024FF000414FF000007A
:103CB000A1F5002170BD19461046012851EB010401
:103CC00018BFD4F5001484BF002001F0004170BD7E
:103CD0000808A0F500114FEA3101704710B591EACC
:103CE000030F48BF83F000433FF51AAE841A71EB0F
:103CF000030C07D212198CF0004C43EB0C03001B91
:103D000061EB0C01DFF8A4E14FEA1154A4EB135C62
:103D10001EEA430F18BF9EEA445F00F0B08023EA1A
:103D20006E03524221EA0451C3EB6E0338BF5B1E9F
:103D3000DCF1200E25D322FA0CFE10EB0E0043FA24
:103D40000CFE41EB0E01CCF1200E03FA0EFE10EB3F
:103D50000E0051F10001CCF1200E29D412FA0EF21E
:103D600001EB0451BDE8104058BF7047401C1CBF18
:103D7000B2F1004F704700280CBF491C20F0010031
:103D8000704712EB020E43EB030218BF4FF0010E17
:103D90004EEA4202ACF1200CDCF11E0E54D943FA7B
:103DA0000CFE10EB0E0051F1FF31CCF11E0ED5D5FB
:103DB0000EF1010E12FA0EFE404141EB010101EB42
:103DC000445C5FEA5C5C10D910EBDE7001EB0451DF
:103DD00038BFBEF1004FBDE8104018BF7047002843
:103DE0000CBF491C20F00100704730D24FEAD42CA0
:103DF00011F5001124F400641BD0B1FA81F20B3AE2
:103E0000A41AA41ED2F12003914030FA03F31943FF
:103E1000904001EBCC71002C01EB0451BDE8104047
:103E2000A8BF704701F1C0414FF0000001F0004110
:103E30007047B0FA80F310FA03F100D110BDE41A14
:103E4000173C4805C90AE4E701EB045110BD4910CD
:103E500001EB0451BDE810404FEA300002E04FF0A2
:103E6000000170474A0008BF0042F8D0B2F5001FB9
:103E700028BF704701F000414FF0000070479EEAF4
:103E8000445F07D011EA5E0FBDE8104004BF002177
:103E900000207047BDE8104070B5FFF7CBFE00BFB3
:103EA00040DFF63E83F00041104670470000E0FF1F
:103EB00000000000000000000000000000002020C2
:103EC00020202000002000002828500000000000D2
:103ED0000000000000005050F85050F85050000012
:103EE000002070A8A0603028A8702000000048A81A
:103EF000B0A874345448000000002050506CA8A8AA
:103F000094680000404080000000000000000000B5
:103F10000810102020202020101008004020201021
:103F2000101010102020400000000020A87070A881
:103F30002000000000000010107C101000000000A5
:103F40000000000000000000404080000000000071
:103F500000FC000000000000000000000000000065
:103F6000004000000004080810102020404080009D
:103F700000007088888888888870000000002060B1
:103F80002020202020700000000070888810204031
:103F900080F8000000007088083008088870000071
:103FA00000001030305090F8103800000000F88009
:103FB00080F08808887000000000304880B0C88811
:103FC00088700000000078081010202020200000D9
:103FD00000007088887088888870000000007088F1
:103FE0008898680890600000000000002000000031
:103FF0000020000000000000002000000020200041
:1040000000000810204040201008000000000000C0
:10401000FC00FC0000000000000040201008081018
:104020002040000000007088881020200020000040
:104030000000384494B4B4B8443800000000202094
:104040003050507848CC00000000F0484870484894
:1040500048F0000000007888808080808870000030
:104060000000F0484848484848F000000000F84880
:104070005070504048F800000000F8485070504020
:1040800040E000000000384880809C8848300000F4
:104090000000CC484878484848CC00000000F82090
:1040A0002020202020F8000000007C1010101010AC
:1040B000101090E00000EC485060504848EC0000C0
:1040C0000000E0404040404044FC00000000DCD8DC
:1040D000D8D8A8A8A8AC00000000DC4868685858E8
:1040E00048E8000000007088888888888870000090
:1040F0000000F0484870404040E000000000708838
:10410000888888E8987018000000F0484870504887
:1041100048EC0000000078888060100888F00000FB
:104120000000F8A820202020207000000000CC48CB
:1041300048484848483000000000CC4848505030BB
:10414000202000000000A8A8A8A87050505000002F
:104150000000D8505020205050D800000000D85007
:1041600050502020207000000000F89010202040C7
:1041700048F800003820202020202020202038006F
:10418000004040202020101010080800701010106F
:1041900010101010101070002050000000000000DF
:1041A000000000000000000000000000000000FC13
:1041B000402000000000000000000000000000009F
:1041C00000304838483C000000C04040407048483B
:1041D00048700000000000000038484048300000EF
:1041E0000018080808384848483C00000000000053
:1041F0000030487840380000001824202078202023
:104200002078000000000000003C4830403844386E
:1042100000C040404070484848EC000000202000AA
:1042200000602020207000000010100000301010EE
:10423000101010E000C040404058506050C80000CE
:1042400000E020202020202020F8000000000000B6
:1042500000F0A8A8A8A800000000000000F048484E
:1042600048EC0000000000000030484848300000E2
:104270000000000000F04848487040E000000000E6
:10428000003848484838081C0000000000D860404A
:1042900040E0000000000000007840300878000096
:1042A00000000020207820202038000000000000BE
:1042B00000D84848483C00000000000000D850509A
:1042C000202000000000000000A8A870505000004E
:1042D0000000000000D8502050D80000000000006E
:1042E00000CC4848301020C00000000000781020AA
:1042F0002078000018101010103010101010180046
:10430000101010101010101010101010602020202D
:104310002010202020206000689000000000000095
:10432000000000000000000000000000000000008D
:10433000000000000000001010101010101000000D
:1043400010100000001224244800000000000000AB
:10435000000000000000001212127E2424247E249B
:10436000242400000000083C4A4A48380C0A0A4A43
:104370004A3C080800000044A4A8A8B0541A2A2AFD
:104380004A44000000000030484848506EA4949809
:10439000897600000060202040000000000000003E
:1043A000000000000002040808101010101010088F
:1043B000080402000040201010080808080808102F
:1043C00010204000000000001010D63838D6101021
:1043D0000000000000000000000808087F0808082E
:1043E00000000000000000000000000000000000CD
:1043F0006020204000000000000000007E0000005F
:1044000000000000000000000000000000000000AC
:10441000606000000000020404040808101010206E
:1044200020404000000000182442424242424242E2
:1044300024180000000000083808080808080808C8
:10444000083E00000000003C4242420204081020E6
:10445000427E00000000003C424202041804024276
:10446000423C0000000000040C0C142424447F048F
:10447000041F00000000007E4040407844020242D9
:1044800044380000000000182440405C6242424270
:10449000221C00000000007E4204040808101010D6
:1044A000101000000000003C424242241824424206
:1044B000423C00000000003844424242463A0202B8
:1044C0002418000000000000000018180000000080
:1044D000181800000000000000000010000000009C
:1044E00000101010000000020408102040201008E6
:1044F000040200000000000000007E00007E0000BA
:104500000000000000000040201008040204081011
:10451000204000000000003C4242620408080800FD
:104520001818000000000038445AAAAAAAAAAA5CD7
:10453000423C00000000001010182828243C44428F
:1045400042E70000000000F84444447844424242FC
:1045500044F800000000003E42428080808080429B
:1045600044380000000000F84442424242424242C5
:1045700044F80000000000FC4248487848484042A7
:1045800042FC0000000000FC424848784848404097
:1045900040E000000000003C44448080808E844461
:1045A00044380000000000E7424242427E4242425C
:1045B00042E700000000007C1010101010101010D6
:1045C000107C00000000003E0808080808080808E1
:1045D000080888F0000000EE4448507050484844F5
:1045E00044EE0000000000E04040404040404040B9
:1045F00042FE0000000000EE6C6C6C6C6C54545475
:1046000054D60000000000C7626252524A4A4A462D
:1046100046E2000000000038448282828282828268
:1046200044380000000000FC424242427C404040CE
:1046300040E000000000003844828282828282B220
:104640004C380600000000FC4242427C484844448A
:1046500042E300000000003E4242402018040242B3
:10466000427C0000000000FE92101010101010108C
:1046700010380000000000E74242424242424242FB
:10468000423C0000000000E742424424242828184D
:1046900010100000000000D654545454546C2828C4
:1046A00028280000000000E74224241818182424B9
:1046B00042E70000000000EE4444282810101010CB
:1046C000103800000000007E8404080810202042FA
:1046D00042FC0000001E10101010101010101010DE
:1046E00010101E00000040202020101010080804A8
:1046F00004040202007808080808080808080808E6
:1047000008087800001824000000000000000000E5
:104710000000000000000000000000000000000099
:10472000000000FF0060100000000000000000001A
:10473000000000000000000000000038440C344479
:104740004C36000000000000C04040586442424225
:1047500064580000000000000000001C224040409F
:10476000221C0000000000000602023E42424242BB
:10477000463B0000000000000000003C42427E403A
:10478000423C0000000000000C12107C10101010C1
:10479000107C0000000000000000003E444438404F
:1047A0003C42423C00000000C040405C6242424249
:1047B00042E70000000000303000007010101010C0
:1047C000107C00000000000C0C00001C0404040419
:1047D0000404447800000000C040404E4850704837
:1047E00044EE0000000000107010101010101010A7
:1047F000107C000000000000000000FE494949490B
:1048000049ED000000000000000000DC624242426E
:1048100042E70000000000000000003C424242422B
:10482000423C000000000000000000D86442424208
:10483000645840E0000000000000001A2642424296
:10484000261A020700000000000000EE322020209F
:1048500020F80000000000000000003E42403C0242
:10486000427C0000000000000010107C10101010AE
:10487000120C000000000000000000C6424242424C
:10488000463B000000000000000000EE44442828E1
:104890001010000000000000000000DB894A5A549C
:1048A00024240000000000000000007624181818DE
:1048B000246E000000000000000000E742242418DD
:1048C00018101060000000000000007E4408101066
:1048D000227E000000030404040404040804040409
:1048E000040403000808080808080808080808085D
:1048F0000808080800C020202020202010202020A8
:104900002020C000205A0400000000000000000029
:104910000000000000000000000000000000000097
:104920000000000000000000000000000000000087
:104930000000000000000000000000000000000077
:10494000000000000000000000000000060006005B
:10495000060006000600060006000200040004002F
:104960000400000000000000060006000600000031
:104970000000000000000000066006600CC0198006
:1049800011002200000000000000000000000000F4
:104990000000000000000000000000000000000017
:1049A0000000000000000000000000000840084077
:1049B000084008407FE07FE01040108010801080A9
:1049C00010807FE07FE02080208020802080000019
:1049D00000000000000000000000020002000F8044
:1049E0001AC032C033C032001A000E000700038024
:1049F000038002C032C03AC032C012800F000200F1
:104A000002000000000000000000000070805080E4
:104A10008900890089008A008A005C0075C0054011
:104A20000A200A20122012201220214021C000005A
:104A30000000000000000000000000001C00360024
:104A40003600360036003600340019E038805880D1
:104A5000CC80CC80C680C700C31063903CE00000CF
:104A600000000000000000003000380008000800CE
:104A70001000200000000000000000000000000006
:104A80000000000000000000000000000000000026
:104A90000000000000000000002000400080010035
:104AA00001000200020004000400040004000400ED
:104AB0000400040002000200010001000080004028
:104AC000002000000000000040002000100008004E
:104AD00008000400040002000200020002000200BC
:104AE000020002000400040008000800100020007A
:104AF0004000000000000000000000000000000076
:104B0000020003000200623072F00B800F807AF026
:104B100062300200020002000000000000000000FD
:104B20000000000000000000000000000000000085
:104B30000000020002000200020002007FF00200FA
:104B4000020002000200020000000000000000005D
:104B50000000000000000000000000000000000055
:104B60000000000000000000000000000000000045
:104B700000000000000000003000380008000800BD
:104B800010002000000000000000000000000000F5
:104B90000000000000000000000000007FE00000B6
:104BA0000000000000000000000000000000000005
:104BB00000000000000000000000000000000000F5
:104BC00000000000000000000000000000000000E5
:104BD000000000000000000038003800380000002D
:104BE000000000000000000000200060004000C045
:104BF00000800080010001000200020006000400A5
:104C000004000800080010001000300020006000C0
:104C100040000000000000000000000000000F0045
:104C2000198030C030C0606060606060606060604B
:104C300060606060606030C030C019800F000000AC
:104C40000000000000000000000000000000020062
:104C50003E000600060006000600060006000600EC
:104C60000600060006000600060006003FC0000021
:104C700000000000000000000000000000001F0015
:104C8000218040C060C060C000C00080018003007F
:104C90000600040008001040204060407FC0000073
:104CA00000000000000000000000000000001E00E6
:104CB0006300618061800180018003000E0001803B
:104CC000008000C000C060C060C061801F000000A4
:104CD0000000000000000000000000000000018053
:104CE000018003800580058009801180118021806A
:104CF00041807FF0018001800180018007E0000099
:104D000000000000000000000000000000003FC0A4
:104D1000200020002000200020002F00318020C033
:104D200000C000C060C060C0418021801F00000042
:104D300000000000000000000000000000000780EC
:104D400018C030C0300020006000678068C070600C
:104D50006060606060602060304018C00F0000003C
:104D600000000000000000000000000000001FE044
:104D7000306020402080008000800100010002009F
:104D80000200020006000600060006000600000001
:104D900000000000000000000000000000001F8074
:104DA00030C0606060606060304038C00F001380C9
:104DB00030C0606060606060606030C00F80000084
:104DC00000000000000000000000000000000F00D4
:104DD000308030C0604060606060606060E0316082
:104DE0001E60006000C000C0308031801E000000E6
:104DF00000000000000000000000000000000000B3
:104E0000000000000000000007000700070000008D
:104E1000000000000000000007000700070000007D
:104E20000000000000000000000000000000000082
:104E30000000000000000000060006000000000066
:104E40000000000000000000000006000600020054
:104E500004000400000000000000000000200040EA
:104E60000080010002000400080010002000100073
:104E70000800040002000100008000400020000043
:104E80000000000000000000000000000000000022
:104E900000000000000000007FE0000000000000B3
:104EA0007FE00000000000000000000000000000A3
:104EB00000000000000000000000000020001000C2
:104EC00008000400020001000080004000200040B3
:104ED0000080010002000400080010002000000013
:104EE000000000000000000000000000000007C0FB
:104EF0001860203020303030303000E00180020077
:104F00000200020000000000070007000700000088
:104F1000000000000000000000000000070018C0B2
:104F2000304033A026A066A065A06D206D206D20C6
:104F30006D206D4027803020304018C00F000000E9
:104F4000000000000000000000000000000006005B
:104F500006000A000B0009000900110011801080F2
:104F60001F8020C020C0204040404060F0F0000082
:104F700000000000000000000000000000007F00B2
:104F800031C030C030C030C030C031803F0030C090
:104F90003040306030603060306030C07F80000072
:104FA000000000000000000000000000000007C03A
:104FB00018C0306030202020600060006000600079
:104FC0006000600060203020304018C00F000000FA
:104FD0000000000000000000000000000000FE00D3
:104FE000318030C030C03060306030603060306060
:104FF00030603060306030C030C03180FE00000072
:105000000000000000000000000000000000FFC0E1
:1050100060C0602060206000610061007F0061006E
:10502000610061006000602060206040FFC00000FF
:105030000000000000000000000000000000FFC0B1
:1050400060C0602060206000610061007F0061003E
:10505000610061006000600060006000F800000016
:1050600000000000000000000000000000000F0031
:1050700018803040304020406000600060006000D8
:1050800063F060C060C030C030C018C00F000000C6
:105090000000000000000000000000000000F0F030
:1050A0006060606060606060606060607FE0606061
:1050B000606060606060606060606060F0F0000090
:1050C00000000000000000000000000000003FC0E1
:1050D00006000600060006000600060006000600A0
:1050E0000600060006000600060006003FC000009D
:1050F00000000000000000000000000000001FE0B1
:105100000300030003000300030003000300030087
:105110000300030003000300030003000300630017
:1051200066003C0000000000000000000000F3C02A
:10513000618063006200640068006C0074007600A7
:105140006200630061006180608060C0F1E0000087
:105150000000000000000000000000000000F80057
:10516000600060006000600060006000600060003F
:10517000600060006000602060206040FFC00000B0
:105180000000000000000000000000000000E0E05F
:1051900061C061C071C071C072C072C052C05AC0DB
:1051A0005AC05CC04CC04CC04CC048C0E1E00000DC
:1051B000000000000000000000000000000071F08E
:1051C0003040384038402C402C4026402640224079
:1051D0002340214021C021C020C020C0F840000051
:1051E00000000000000000000000000000000F00B0
:1051F000198030C0304060606060606060606060F6
:10520000606060606060304030C019800F00000056
:105210000000000000000000000000000000FF008F
:1052200060C06060606060606060606061C07F00FE
:10523000600060006000600060006000F800000036
:1052400000000000000000000000000000000F004F
:10525000198030C030406060606060606060606095
:10526000606060606E60324033C019800F0001E002
:1052700000C0000000000000000000000000FF80EF
:1052800060C0606060606060606060C07F006200FD
:1052900063006100618060C060C06060F070000009
:1052A00000000000000000000000000000001F409F
:1052B00030C060406040600070003C001F0007C0CC
:1052C00001C000E040604060606030C00F800000BE
:1052D00000000000000000000000000000007FE06F
:1052E000462086108610060006000600060006000E
:1052F0000600060006000600060006001F800000EB
:10530000000000000000000000000000000078E045
:10531000304030403040304030403040304030400D
:105320003040304030403040304018800F000000A6
:105330000000000000000000000000000000F0E09D
:1053400060402080208030803080110011001900E2
:1053500019000A000A000E000C00040004000000FE
:105360000000000000000000000000000000EF70DE
:1053700046204220622062202640264027402740C7
:105380003940398019801980118011001100000006
:10539000000000000000000000000000000079E0B4
:1053A00030801080188009000D00060004000600FF
:1053B00006000B0009001180108020C071E0000081
:1053C0000000000000000000000000000000F0F0FD
:1053D000602020403040108018801D000D000E001D
:1053E0000600060006000600060006001F800000FA
:1053F00000000000000000000000000000003FE08E
:10540000304060C0408001800100020002000400C2
:105410000400080018001020302020407FC0000049
:10542000000000000000000007C0040004000400A9
:10543000040004000400040004000400040004004C
:10544000040004000400040004000400040004003C
:1054500007C0000000000000000000002000200045
:1054600010001000080008000800040004000200FA
:1054700002000300010001000080008000400040A5
:1054800000400020000000003E0002000200020078
:1054900002000200020002000200020002000200FC
:1054A00002000200020002000200020002000200EC
:1054B0003E0000000000060009001080000000000F
:1054C00000000000000000000000000000000000DC
:1054D00000000000000000000000000000000000CC
:1054E00000000000000000000000000000000000BC
:1054F00000000000000000000000000000000000AC
:10550000000000000000000000000000000000009B
:105510000000FFF00000000018000600000000007E
:10552000000000000000000000000000000000007B
:10553000000000000000000000000000000000006B
:10554000000000000000000000000000000000005B
:1055500000000000000000000F8030C030C000C01C
:1055600007C038C070C060C060C071D03E7000001D
:1055700000000000000000000000000010007000AB
:10558000300030003000300033803CC03860306084
:105590003060306030603060304038C027800000BC
:1055A00000000000000000000000000000000000FB
:1055B00000000000000000000F0031803180618099
:1055C0006000600060006040304030800F000000EC
:1055D000000000000000000000000000004003C0C8
:1055E00000C000C000C000C01EC031C030C060C0DC
:1055F00060C060C060C060C020C031E01E8000009C
:10560000000000000000000000000000000000009A
:105610000000000000000000078018C0104030604B
:1056200030603FE030003000182018400780000054
:10563000000000000000000000000000000003C0A7
:1056400006600C600C000C007F800C000C000C004D
:105650000C000C000C000C000C000C003F80000043
:10566000000000000000000000000000000000003A
:1056700000000000000000000FE01B60318031805E
:10568000318019801F0030003F0033C060C060C00F
:1056900071C01F000000000000000000100070003A
:1056A0003000300030003000378038C030C030C0AB
:1056B00030C030C030C030C030C030C079E00000F1
:1056C00000000000000000000000000000000600D4
:1056D00006000000000002003E0006000600060072
:1056E0000600060006000600060006003FC0000097
:1056F0000000000000000000000000000000038027
:1057000003800000000000800F8001800180018084
:105710000180018001800180018001800180018081
:1057200033003E0000000000000000001000700088
:10573000300030003000300031C031003100320024
:1057400036003A0031003180308030C079E000000E
:1057500000000000000000000000000002003E0009
:105760000600060006000600060006000600060009
:105770000600060006000600060006003FC0000006
:105780000000000000000000000000000000000019
:105790000000000000000000ECE0776066606660DA
:1057A000666066606660666066606660FFF0000066
:1057B00000000000000000000000000000000000E9
:1057C0000000000000000000778038C030C030C00A
:1057D00030C030C030C030C030C030C079E00000D0
:1057E00000000000000000000000000000000000B9
:1057F00000000000000000000F00198030C0606051
:10580000606060606060606030C030C00F000000A9
:105810000000000000000000000000000000000088
:105820000000000000000000778038C03060306069
:10583000306030603060306030C038C03780300059
:1058400030007C00000000000000000000000000AC
:1058500000000000000000001E4031C030C060C0E9
:1058600060C060C060C060C020C031C01EC000C049
:1058700000C003E000000000000000000000000085
:105880000000000000000000F9C01A601C60180051
:10589000180018001800180018001800FF00000079
:1058A00000000000000000000000000000000000F8
:1058B00000000000000000000FC038C03040304041
:1058C0001C000F0003C020C020C031C03F8000007A
:1058D00000000000000000000000000000000000C8
:1058E000040004000C000C007F800C000C000C0075
:1058F0000C000C000C000C000C400C400780000059
:105900000000000000000000000000000000000097
:10591000000000000000104071C030C030C030C036
:1059200030C030C030C030C030C039E01E80000010
:105930000000000000000000000000000000000067
:10594000000000000000000078E03040108010806F
:10595000188009000D000D0006000600040000007C
:105960000000000000000000000000000000000037
:105970000000000000000000EF704620622026407A
:1059800026403740398019801980198010000000A6
:105990000000000000000000000000000000000007
:1059A00000000000000000003DE0188008800D00AD
:1059B0000600060007000900108010C079E0000012
:1059C00000000000000000000000000000000000D7
:1059D000000000000000000079E0108010801080BE
:1059E000090009000D00060006000600040004007E
:1059F000240038000000000000000000000000004B
:105A000000000000000000003F80218023002200F1
:105A1000060004000C001840104030C03F80000019
:105A2000000000000000000000C0010001000100B3
:105A30000100010001000100010002000400020059
:105A4000010001000100010001000100010001004E
:105A500000C000000200020002000200020002007A
:105A60000200020002000200020002000200020026
:105A70000200020002000200020002000200020016
:105A800002000200000000003000080008000800CA
:105A900008000800080008000800040002000400D4
:105AA00008000800080008000800080008000800B6
:105AB00030000000000038004420432001C00000F6
:105AC00000000000000000000000000000000000D6
:105AD00000000000000000000000000000000000C6
